:020000040000FA
:100000000080001051040000590400005B0400004F
:100010005D0400005F0400006104000000000000B7
:100020000000000000000000000000006304000069
:10003000650400000000000067040000690400007F
:100040006B0400006B0400006B0400006B040000F4
:100050006B0400006B0400006B0400006B040000E4
:100060006B0400006B0400006B0400006B040000D4
:100070006B0400006B0400006B0400006B040000C4
:100080006B0400006B0400006B0400006B040000B4
:100090006B0400006B0400006B0400006B040000A4
:1000A0006B0400006B0400006B0400006B04000094
:1000B0006B0400006B0400006B0400006B04000084
:1000C0006B040000000000000000000000000000C1
:1000D0000000000000000000000000000000000020
:1000E0000000000000000000000000000000000010
:1000F0000000000000000000000000000000000000
:1001000000000000000000000000000000000000EF
:1002F000000000000000000000000000FFFFFFFF02
:1003000000F002F800F096F80AA090E8000C824491
:100310008344AAF10107DA4501D100F08BF8AFF26E
:10032000090EBAE80F0013F0010F18BFFB1A43F0D3
:10033000010318472059000040590000103A24BF1B
:1003400078C878C1FAD8520724BF30C830C144BF3A
:1003500004680C607047000000230024002500267C
:10036000103A28BF78C1FBD8520728BF30C148BF18
:100370000B6070476E2900F0E783702900F0438519
:10038000662905F02381652905F02081672905F09C
:100390001D81612905F01C8103681B0A28BF41F0FB
:1003A0008001692900F09483642900F09183752904
:1003B00000F08E836F2900F0D084782900F00F853B
:1003C000E92900F06B84E42900F06884F52900F045
:1003D0006584EF2900F0CD84F82900F00E850368CC
:1003E000DB0928BF41F08001632901F0D58473291E
:1003F00001F0DA84E32901F0E584F32901F0EA84CD
:10040000002070471FB59DE8030000F0C9FA01F015
:1004100087FD04000020002104F0F6FD401C606010
:100420000020002104F0DAFDE06000F0C3FF00F0DE
:1004300077FA1FBD03F0DEF8114603B403F0EEF8BF
:1004400003BCFFF7DFFF02F04DFA03F0A9FB000049
:100450000648804706480047FEE7FEE7FEE7FEE75E
:10046000FEE7FEE7FEE7FEE7FEE7FEE70129000004
:100470000103000000487047F003001070B5064605
:1004800000F072FA056806F10B0020F00704B44290
:100490009CBF002070BD2B466A68BAB11068A042AC
:1004A00010D304F1080188423CBF5068586007D35C
:1004B0005168101941601168091B0160586014608F
:1004C000101D70BD13465268002AE7D12146284608
:1004D00000F052FA0028DED170BD70B50446051F49
:1004E00000F042FA0068002C14BF446870BD002C74
:1004F00018BFAC423CBF20466468F8D301680A18B4
:10050000AA4218BF456003D12A680546114401601C
:1005100028684119A1421CBF6C6070BD61686960A8
:1005200021680844286070BD7CB51D4616460C0045
:10053000009001D02044401E074B7B442A46694668
:100540000190304600F019FB05461CB100206946B9
:1005500000F026FB28467CBD6D0600000B460146D8
:10056000184600F02BBB000070B50446C068810738
:1005700013D0800601D5A56A04E0A169606808442B
:100580002169451A204600F0D1FE00220646294680
:10059000204600F0F7FD304670BD002070BD70B5FC
:1005A00010B1BDE87040DFE70025074C6E1E07E084
:1005B0002046FFF7D9FF00B13546206D20F0010439
:1005C000002CF5D1284670BDF40300102DE9F04150
:1005D0000C4607461646104600F078F82078611C55
:1005E00061280AD0722802D077283CD102E0012588
:1005F000002405E00225042402E0082448F2020554
:1006000011F8010B2B2806D0622809D011F8010C33
:1006100074280AD00BE045F0030544F00204EFE72C
:1006200045F0040544F00104EAE744F010043846BC
:10063000214603F06DF8411C15D000213161716035
:100640004FF40071F560F1617061200704D5304608
:100650000222002100F096FD306D40F0010030656F
:100660003046BDE8F0810020FBE72DE9F0410D4662
:100670000646104C206DC10704D0410804D020F07C
:100680000104F7E722460EE05420FFF7F7FE0700CB
:100690000ED0206D47F001010843542120653846F3
:1006A00000F0D6F83A4629463046BDE8F0418DE7DD
:1006B0000020D6E7F403001011B14FF4807201E07E
:1006C0004FF480624FF4007300F0D8BD2DE9F0477D
:1006D00004464FF000094FF0FF37C568D4E904869F
:1006E000A80707D0204600F021FE304602F0A4FF04
:1006F000002802DA3846BDE8F087280502D54046D2
:10070000FFF7EBFE4C21204600F0A2F8206D20F010
:10071000010020654846EEE710B5431C02E010F8E2
:10072000011B71B18107FAD14FF0013202C88C1A56
:100730008C4314EAC211F9D0C01A0A0603D0C01EB5
:1007400010BDC01A10BD0A0401D0801E10BD0902E0
:10075000FCD0401E10BD40EA010370B59B072ED1AE
:100760004FF00136042A2AD308C810C99D1B9D43A7
:10077000121F15EAC61517D0D8B2E1B2401A50EAD6
:10078000056110D198B2A1B2401A50EA05410AD1D0
:1007900023F07F4024F07F41401A50EA052102D126
:1007A000180EA0EB146070BDA342DBD018BA21BABA
:1007B000884201D9012070BD4FF0FF3070BD0AB9E9
:1007C000002070BD10F8013B11F8014B63B1A3424A
:1007D0000AD1521E08D010F8013B11F8014B1BB191
:1007E000A34201D1521EEDD1181B70BD10B5203AA5
:1007F000C0F00B80B1E81850203AA0E81850B1E8DA
:100800001850A0E81850BFF4F5AF5FEA027C24BF8F
:10081000B1E81850A0E8185044BF18C918C0BDE886
:1008200010405FEA827C24BF51F8043B40F8043B4F
:1008300008BF7047D20728BF31F8023B48BF11F804
:10084000012B28BF20F8023B48BF00F8012B70475E
:100850004FF0000200B5134694469646203922BF59
:10086000A0E80C50A0E80C50B1F12001BFF4F7AFA4
:10087000090728BFA0E80C5048BF0CC05DF804EB86
:10088000890028BF40F8042B08BF704748BF20F8F4
:10089000022B11F0804F18BF00F8012B70470000A9
:1008A0004FF0013C50F8042B51F8043B9A4221D1FF
:1008B000A2EB0C03934313EACC1317D150F8042B8B
:1008C00051F8043B9A4215D1A2EB0C03934313EA6F
:1008D000CC130BD150F8042B51F8043B9A4209D1A8
:1008E000A2EB0C03934313EACC13DBD04FF00000D0
:1008F000704700BFD01A01BAB1FA81F101F01801B6
:1009000022FA01F0CB40C1F12001DBB2C0B2C01A23
:100910002CFA01F3D11A914311EAC311E6D17047C1
:1009200070B5064C7C44064D7D4403E020682044AD
:100930008047241DAC42F9D170BD000078540000FE
:10094000785400002DE9F04117460E46054633B1B4
:1009500007FB0354E41B2046B047A542FAD1A5F19A
:100960000800BDE8F081000000487047F004001066
:10097000704770477047704738B504460A460020F4
:10098000694601F0A2FA002808BF38BD0246009966
:10099000204600F0B2FD012038BD012001F06BBA05
:1009A000F8B501F087FA054600200C46102000BF7C
:1009B0000646A819A0420DD932466946002001F02A
:1009C00084FA070008BF01F056FA0098A04218BF49
:1009D0000546C419FFF7C8FF05600746F01D20F063
:1009E00007004619284600F00AF8B44208BFF8BDCF
:1009F000A21B31463868BDE8F84000F07EBD0021FA
:100A00000160C0E9011070471020704770B50446BE
:100A100085690068C10601D5302600E02026C007A0
:100A200007D070BDD4E9012130469047206A401CB0
:100A300020626D1EF6D570BD70B5044685690078DC
:100A4000C00707D170BDD4E9012120209047206A5A
:100A5000401C20626D1EF6D570BD09684A0501D59F
:100A600040B27047C905FCD500B2704709684A0515
:100A700001D5C0B27047C905FCD580B2704770B5CA
:100A80000C460546012A05D02878800600D5EA697B
:100A9000002302E0012305E05B1C934202D2E05CEC
:100AA0000028F9D1A869E618C01AA861286A184474
:100AB00028622846FFF7AAFF04E0D5E9012114F8CF
:100AC000010B9047B442F8D32846FFF7B5FF70BD3D
:100AD0002DE9F0410646002410687529314616A517
:100AE00010D0FFF7BAFF002802DA404213A507E052
:100AF00031688A0701D512A502E0490704D511A57E
:100B0000012401E0FFF7B2FF00210A2206F12407C9
:100B100009E0B0FBF2FCB0FBF2F302FB1C0030304A
:100B200078541846491C0028F3D123462A463046FB
:100B3000BDE8F04100F040BD000000002D000000C5
:100B40002B0000002000000011680268006A5305B5
:100B500001D508700AE0D30501D5088006E0130628
:100B600003D5C217C1E9000200E008600120704708
:100B700001694A1C02610878704700B58FB0CDE961
:100B800001310021059105497944CDE90310114651
:100B9000684600F043F90FB000BD0000E5FFFFFF1D
:100BA0000A6802F8010B0A607047D1E900239A42F3
:100BB00002D2531C0B60107070470000074B70B5D9
:100BC0000D467B44FFF7D9FF0446284600F0EAF9BA
:100BD00010B14FF0FF3070BD204670BD07300000EF
:100BE0002DE9FF5F15468A460446DFF8AC80F844DD
:100BF0000027D8E900103E46CDE9001010E03AF891
:100C000016106A4602A801F00AF9411C07D02178A3
:100C1000890603D5E269391891420DD80744761C3C
:100C20002078800602D5E069B84205DDAE42E6DBF9
:100C30003AF816000028E2D1A069C01BA061204646
:100C4000FFF7E4FED8E90010CDE90010002017E01E
:100C50003AF818106A4602A801F0E1F8B0F1FF3F37
:100C600081460BD000250DF1080B05E0D4E90121E8
:100C70001BF8050090476D1C4D45F7D308F10100A6
:100C8000B0428046E4DB206A384420622046FFF709
:100C9000D3FEBDE8FF9F0000D24B00002DE9F041DC
:100CA0008046D21D22F007020025D2E90002F52974
:100CB00015A614D0011E72F1000106DA0023D0EB54
:100CC000030063EB020211A608E0D8F800108B07BE
:100CD00001D50FA602E0490701D50EA60125114650
:100CE000002408F1240704E000F021FC30323A55DA
:100CF000641C50EA0102F7D12B4632462146404699
:100D0000BDE8F04100F058BC000000002D000000DC
:100D10002B0000002000000030B4002100F124046A
:100D200008E002F00705D208303542EA4372DB08DA
:100D30006554491C52EA0305F3D10468002310A24C
:100D4000250707D5A40600D421B1C46901230DA24B
:100D5000641EC46130BC00F02FBC10B504462146AF
:100D60001068FFF783FE02462046BDE810400023CE
:100D7000D2E7D21D22F00701D1E90023CCE7000021
:100D80000000000030000000F0B40D4601880905A5
:100D900002D5214C7C4402E01F4C7C440E340021DF
:100DA00000F1240608E002F00F071209E75D42EAAD
:100DB00003721B097754491C52EA0307F3D10278E6
:100DC0000023120704D5702D06D009B10223113477
:100DD0002246F0BC00F0F0BB01231034F8E770B5F8
:100DE00004460D4621461068FFF740FE024629469C
:100DF0002046BDE870400023C6E7D21D22F007035D
:100E0000D3E90023C0E70368126843F020030360BE
:100E10000823C3610023B7E7344A00002DE9F05FDF
:100E2000894604464FF0000ADFF874B1FB44C0F86D
:100E300020A02046E1688847002874D0252806D0E5
:100E4000D4E901219047206A401C2062F1E7002686
:100E50005F462046E16888472028054607DB312D9C
:100E600005D2781910F8200C08B10643F1E7B00755
:100E700001D526F00406C4F81CA00027C4F818A069
:100E80002A2D09D0284602F0B9FB38B304EB8708B5
:100E9000303DC8F8185019E059F8041B204604EBFF
:100EA00087029161E1688847012F054618D1E06902
:100EB000002820DA26F020061DE0D8F8180000EB04
:100EC000800005EB40003038C8F818002046E16883
:100ED0008847054602F092FB0028EED1012F0AD088
:100EE0002E2D08D12046E16888477F1C0546022F39
:100EF00046F02006C4DBA069002803DA404246F031
:100F00000106A061F00701D026F010066C2D0BD071
:100F1000682D09D04C2D39D06A2D35D0742D35D09F
:100F20007A2D33D016E038E0E1682F462046884716
:100F3000B842054609D16C2F26D04FF48060E16895
:100F4000064320468847054604E06C2F1AD04FF42C
:100F5000807006430DB3A5F14100192802D8203551
:100F600046F400664A462946204626604E46FFF76C
:100F700001FA80B101280BD0F61D26F0070000F120
:100F8000080956E74020E4E78020D8E70020D6E7AC
:100F900006F104094DE7284652E7206ABDE8F09FB4
:100FA000C4490000007B00F0800070472DE9F04745
:100FB00005460C46C86820F4201040F48000C86044
:100FC000800602D5084600F0D4F9E06841F28201BB
:100FD0004FF0FF390140022903D0204600F072F99A
:100FE000B5E000F42041B1F5004F0FD1C00306D5A4
:100FF0006168E06A884200D80846606006E02069BF
:10100000E0626060606902F03DFBA061A0680022C0
:10101000EEB200280DDAE1688B050AD4C043A06067
:1010200041F490302260E0606068411C61600670AD
:10103000A5E0E0689046226040F40050E06020693E
:1010400068BB606902F044FB012704F12405A0B1EC
:10105000A08910F4407F08D0E069FFF70FFA206103
:1010600018B1E06840F4006016E0E7612561E068CF
:1010700020F4407040F480600EE0E069FFF7FEF974
:1010800000282061F1D0E06840F4006010F4407F57
:10109000E06002D140F48070E06020696060E06848
:1010A00025696FF0010AC1051FD56168E06A8842B1
:1010B00000D80846411B04D02246284600F00CF90F
:1010C000F0BBE068010203D5E562C4E9015854E0D1
:1010D000691CE1626160E16940F48030491EC4E945
:1010E000021030462E70BDE8F087010202D500F4F0
:1010F00080320AE06068411C61600670E0680A2E78
:1011000040F48030E06006D00022E16A60688142ED
:1011100003D90B4602E00122F7E70346A7895B1BD0
:101120007F0503D4E7699F4200DDE2B1814200D828
:101130000146E5620F1AC4E90158002B09DD00E001
:1011400005E022461946284600F0C6F808B1484690
:10115000C9E747B1A069E5626560C01BA061E068AE
:1011600040F01000E060E068000208D56168A06906
:10117000E562491B08446560A0615046B3E730460C
:10118000B1E700002DE9F041044616460D464769D7
:10119000007B80072ED0384602F09AFA50BB3EB34F
:1011A000012E02D0022E25D104E0204600F016FECA
:1011B00005441DE0384602F065FAE168002841F078
:1011C0001001E16005DA204600F07CF80120BDE85E
:1011D000F081C9030BD56268E16A914200D81146DB
:1011E000A26911442269891A814200DD084605443A
:1011F000002D01DA0220EAE7E16A6068E2688142D4
:1012000006D29103E06203D522F4003141F01002CE
:10121000A6690027AE4213DCE16A814201D90B4680
:1012200000E0034603EB060C2369ACEB030CAC4572
:1012300006DD814201D98C4600E084469C4505D1FB
:10124000A760276042F02000A5620DE0AD1BE669B3
:10125000AE1B8142A66000D90846C01A281A206039
:101260005819606022F0200003490840E060002027
:1012700084F84870ABE70000BFCFD7FF70B5C468F3
:10128000A50713D0650211D4B2F5807F09D0B2F55D
:10129000007F06D0B2F5806F08D1012300F1240150
:1012A00006E05D1E6FF07F46B54201D3012070BDA0
:1012B0000161C361416024F470611143C160002089
:1012C00070BD0000C16821F4001141F08001C160CF
:1012D00000218160016070472DE9F0478146144686
:1012E0000E464FF0FF383248D5685769054209D09D
:1012F0003846A16902F010FB002811DB2C48C043DE
:101300000540E5602B4632464946384602F02CFB44
:10131000A16920F00042B21A11440028A16103D053
:101320002046FFF7CFFF4046BDE8F08770B5044682
:101330000569C06A6168884200D80846E16821F4FE
:101340002011E160C90312D5A84208D02246411BF2
:101350002846FFF7C1FF10B14FF0FF3070BD0020ED
:10136000E562C4E90150E06820F48030E0600020CC
:1013700070BD10B50446C06820F02000E060A16A8E
:10138000A06988420DD02046FFF7D0FFE06820F426
:10139000405040F01000E060A06AA0612069E06267
:1013A000606044F24001E0688843E06010BD0000E6
:1013B0001000020010B542485421FFF749FA414895
:1013C0005421FFF745FA40485421FFF741FA3F49BD
:1013D0003B483C4A3F4B08603D490A603A49196026
:1013E000531C0365481C1065012008653B48344ABE
:1013F00039A17844FFF7EAF820B9384878440A3828
:1014000000F032FD37482F4A35A17844FFF7DEF867
:1014100020B9344878440A3800F026FD32482A4A78
:101420002FA17844FFF7D2F820B92F4878440A3822
:1014300000F01AFD40232248DC0000212246FFF77D
:101440001DFF20B125487844543800F00DFD1D489B
:10145000224640230021FFF711FF20B121487844A4
:10146000543800F001FD1848224610230021FFF7F0
:1014700005FF002806D01C487844BDE810405638C7
:1014800000F0F2BC10BD104870B5006D20F00104F2
:101490000B48FFF71BF90B48FFF718F90A48FFF74D
:1014A00015F909E0206D20F001052046FFF70EF93F
:1014B0002046FFF712F82C46002CF3D170BD000037
:1014C000F4030010480400109C04001018010010E0
:1014D0001C01001020010010720000007642000084
:1014E00077000000654200005542000010B500F092
:1014F000C9FCBDE8104000F0B2BC034640688C4611
:10150000002818BF88423CBF03464068F8D31868DB
:101510001844884207D00CF1030020F00700001D9A
:10152000411A521A0146081D0A60FEF7D6BF30B5AF
:10153000B0F10A024FEA900E71F100034EEA817E8B
:10154000B0EB0E0061EB91014FEA101E4EEA017EF6
:1015500010EB0E0041EB11114FEA102E4EEA016E16
:1015600010EB0E0041EB11214FEA104E4EEA014EF6
:1015700010EB0E0041EB1141401841F100014FEA20
:10158000D00040EA41704FEAD10110EB80054FEAEC
:10159000810444EA907444EB01046D1944EB0404A3
:1015A000521BA3414FF0000348BF0A3200D530BDA3
:1015B000401C41F1000130BD2DE9F0470D46994630
:1015C0009246044600F124080168880604D5E069C3
:1015D00021F01001216000E00120A84201DD471B3D
:1015E00000E00027A1697A1902EB0900081AA0613E
:1015F0002078C00602D42046FFF708FA002608E04B
:10160000D4E901211AF806009047206A401C761C94
:1016100020624E45F4DB2078C0060AD52046FFF74D
:10162000F5F906E0D4E9012130209047206A401CFA
:101630002062381EA7F10107F4DC07E0D4E901219C
:1016400018F805009047206A401C2062281EA5F16A
:101650000105F3DC2046FFF7EFF92078000602D5FC
:101660000220BDE8F0870120FBE770472DE9FF4F1E
:101670000C461E464FF0FF378BB0D2E90001DDF873
:1016800060800A908A46C1F30A5505B93D4600219B
:1016900008464FF00000BAF1000F00F4400005DAF0
:1016A00000EB80004FF4400101EA50004FEA9059EE
:1016B000B9F1010F00DDB9460A9850EA4A000ED090
:1016C00044F61050A5F2FF3545432F14B8F1000F32
:1016D0001ED07542291E1EDDC9F100021CE0B8F1C2
:1016E000010F4FF0000001D0302103E0F24305E08C
:1016F0002154401CB042FBDB304600220021215423
:101700000B99C1F80880C1E900200FB0BDE8F08F47
:10171000BD1B6D1CDEE74A4600DA694206A800F0F0
:1017200043FC06AB93E8070003AB83E80700504691
:101730000A9900F00FFD8DE80700A0F500501F3852
:1017400000900398002D0ADD42F21F014A4608442A
:10175000002303A90390684600F078FF09E0A0F594
:1017600000504A461F38002303A90390684600F042
:1017700082FF8DE807000004000C03D04FF0FF301B
:10178000410800E01046B8F1000F03D0002200929B
:1017900015461EE0751E05D4FFF7C9FE30326255AE
:1017A0006D1EF9D5B3460122084302D000227F1CEA
:1017B00004E02078302801D100227F1E002A0997FA
:1017C00084D01DE0112D07DAFFF7B1FE30326255EB
:1017D0006D1C50EA0102F5D1084302D00098C8B14F
:1017E0000EE00021681E05E0235C625C6354225415
:1017F000401E491C8142F7DBAB46A81B401E0990E6
:10180000002004F80B000B98099AC0F80880C0E982
:10181000002B7AE711264FF0000857E72DE9F04F2B
:1018200088460446D21D22F0070191B0D1E900019B
:10183000CDE90A0101F06CFE02460B98C00F01D001
:101840002D2007E02068810701D52B2002E0202110
:1018500001EAC000032A099001D0072A05DB0346EC
:101860004146204600F060FB0BE12078800601D560
:10187000E06900E00620B8F1650F814606D0B8F1B6
:10188000660F18D0B8F1670F70D131E00020B9F1C0
:10189000110F009001DB112301E009F101030AAAF5
:1018A00001A90CA8FFF7E2FEDDE90C70002609F1A2
:1018B0000105834647E001204B4600904FF000476A
:1018C0000AAA01A90CA8FFF7D1FEDDE90DB00C9919
:1018D0005D46002610B909F101000D18B9EB0500AD
:1018E00003D4C0F1FF3609F10105A5EB09002BE097
:1018F000B9F1010F01DA4FF001090020B9F1110F20
:101900000090484601DD112300E003460AAA01A920
:101910000CA8FFF7ABFEDDE90C704D4600268346B0
:10192000207800070AD4AB4500DA5D4601A8012DF6
:1019300004DD411911F8011C302907D04F4502DAA6
:1019400017F1040F04DA012082460FE06D1EEEE766
:10195000002F02DCED1B3E4403E0781CA84200DDB2
:101960007D1CB81B00F1010A4FF0004720780007EA
:1019700003D4AA4501DB4FF0FF3A0021B7F1004F35
:101980000DF143088DF8431024D002202B23002FA3
:1019900001DA7F422D230A21021EA0F1010000DCA2
:1019A0005FB197FBF1FC97FBF1F201FB1C7C174642
:1019B0000CF1300C08F801CDEEE7A8F1010003703E
:1019C0002188090501D5452100E06521A0F1010824
:1019D00000F8011C09980FA9A1EB0807FF1D00B131
:1019E0000120411901EBEA70A1693844081A401E30
:1019F000A0612078C00602D42046FFF707F80998B6
:101A000028B1D4E901219047206A401C2062207847
:101A1000C00622D52046FEF7F9FF1EE0002E04DBAB
:101A2000B34502DD01A8805D00E03020D4E901214A
:101A30009047206A401C2062761CAAF101005FEAF0
:101A4000000A0AD100F06CFAC0680168405CD4E971
:101A500001219047206A401C2062281EA5F1010543
:101A6000DCDC07E0D4E9012118F8010B9047206A7B
:101A7000401C2062381EA7F10107F3DC2046FEF768
:101A8000DBFF032011B041E62DE9F04F04460D467F
:101A9000D21D22F0070089B0D0E9009748463946A8
:101AA00001F036FD0246F80F01D02D2307E0206833
:101AB000810701D52B2302E0202101EAC0038DF824
:101AC00020300BB1012000E00020032A824601D023
:101AD000072A04DB2946204600F026FA3FE1207859
:101AE000800601D40D2500E0E569C7F30A560D2DE7
:101AF00049DA00214FEA175B08464FF00000002F3B
:101B000000F4400007DA00EB80004FF4400100EBE6
:101B1000D07001EA60008115012901DD4FF0FF312D
:101B200000224FEA850CBCF1180F06D31346ACF126
:101B300018004FF08052C24003E04FF4801323FAA4
:101B40000CF30CF10C0CBCF1200F04D3ACF1200C05
:101B500009FA0CF001E007FA0CF000294FF00048F8
:101B600001DD18B90FE00ED140450CD319EB020985
:101B70005F4121B9404502D19F4329EA0209BBEBED
:101B8000175F00D0761C2088000502D57B4878447A
:101B900002E07A487844193808AA302302F80A305B
:101BA000037C0AF10101002E0AF1020A53546A462D
:101BB00002DC4FF0300101E04FF031014FF001083D
:101BC0008DF8001002D0A6F2FF3603E059EA470173
:101BD00000D06B4E002D02DC2178090704D54FF0B0
:101BE00002082E218DF80110C44600210BE0C7F336
:101BF00003433F01C35C491C6D1E02F808300529F0
:101C000008F1010801DA002DF1DC00210CE000EB05
:101C10001973491C1B786D1E082902F808304FEA19
:101C2000091908F1010801DA002DF0DC21688B06A2
:101C300002D516E0A8F10108E04505DD02EB080336
:101C400013F8013C302BF5D0B8F1000F09DD02EBA1
:101C5000080313F8013C2E2B03D1090701D4A8F186
:101C60000108002D05DD3E2102F808106D1E08F167
:101C70000108407C002E02F8080008F1010804DA8F
:101C80002D20764202F8080002E02B2002F808001E
:101C90000A214FF47A70864208F101080BDB96FBAB
:101CA000F0F3303302F8083096FBF0F308F1010846
:101CB00000FB136601E0642E0CDB642096FBF0F35E
:101CC000303302F8083096FBF0F308F1010800FB0E
:101CD000136601E00A2E06DB96FBF1F0303002F8C5
:101CE000080008F1010896FBF1F001FB10603030AC
:101CF00002F80800A16908F1010808EB050202EBEF
:101D00000A00081AA0612078C00602D42046FEF717
:101D10007DFE216A08AE01EB0A00206204E0D4E9EE
:101D2000012116F8010B9047BAF1010AF7D2207889
:101D3000C00602D52046FEF769FE6E4609E016F899
:101D4000010B3E280FD0D4E901219047206A401CA6
:101D50002062B8F10108F2D22046FEF76DFE09B00C
:101D60000320BDE8F08F206A2844206203E0D4E914
:101D70000121302090476D1EEBD3F8E7863C000030
:101D800002FCFFFF10B5436913B1AFF3008001E01F
:101D9000FEF775FE012010BD127800F124010A70D3
:101DA00000224A700122EDE711684FF0FF32E9E7A7
:101DB00010B5436913B1AFF3008001E0FEF710FFE7
:101DC000012010BD128800F1240182840022C28407
:101DD0000122EDE711684FF0FF32E9E710B5014647
:101DE000C268900703D0900607D5886A0AE0FEF71C
:101DF00041FB01210160881E10BD8B6948681844B1
:101E00000B69C01A91F848301BB191F84910401A7B
:101E100010BD1103FCD50028FADD401E10BD70B5C1
:101E200016460C46054600F073F8036893F8010166
:101E3000012806D0FF2C0FD8185D68B101202C7046
:101E400070BDD3F807013246214603F2071303445D
:101E50002846BDE8704018474FF0FF3070BD00289D
:101E600001D000F04FB8704710B500F029F9BDE877
:101E70001040FFF7F4BF10B500F03CF9BDE810408A
:101E8000FFF7EDBF10B5002102A000F0FFF8012020
:101E900010BD00005349475056464E3A20507572C7
:101EA00065207669727475616C20666E2063616C62
:101EB0006C656400124B694600F580528A421A60D4
:101EC00001D8114670471960704730B50C4D6B460C
:101ED000A3F580532C6822449A420FD89B1A02F52E
:101EE000805003EBD37302EB6303984200D918468A
:101EF000C01D20F007020C60101B2A6030BD0000DE
:101F00002401001001491820ABBEFEE726000200A4
:101F100010B500F005F8001D10BD00BFED30000049
:101F200000487047F40400102DE9F0411F460446B4
:101F300003260168072A01F4006004DB08B116A536
:101F400005E016A503E008B115A500E015A521F0F0
:101F500010002060A069C01EA0610FB1401EA061EA
:101F60002046FEF753FD4FB1D4E901213846904792
:101F7000206A401C2062C01C206206E0206AFAE74A
:101F8000D4E9012115F8010B9047761EF8D22046BE
:101F9000FEF752FDBDE8F0814E414E006E616E00CD
:101FA000494E4600696E66002DE9F04781461646A7
:101FB0008AB0354878440DC88DE80D003248784421
:101FC000801C03AC0DC884E80D0041F69B3008442A
:101FD000372190FBF1F290FBF1F5A5F1800501FBB3
:101FE00012041B3C02D56442012000E00020DFF80F
:101FF00098A080460027FA44AAF1BE0A0EE0E00746
:102000000AD03246684607EB470101230AEB8101FB
:1020100000F031FB8DE8070064107F1C002CEED12E
:10202000194F7F44AE3F19E0E80715D007EB0410C5
:102030000DF1180A90E80E008AE80E00C068F04220
:1020400001D1981908903246012306A903A800F08F
:1020500012FB03AB83E807006D10641C002DE3D175
:102060004FF0010332466946B8F1000F03A802D0D1
:1020700000F0ECFA01E000F0FEFAC9E90001C9F84D
:1020800008200AB0BDE8F087F038000070B50546BA
:102090000C460A2000E06D1C00F054F835B1287899
:1020A0000028F8D102E0641C00F04CF814B120784C
:1020B0000028F8D1BDE870400A2000F043B80000C5
:1020C00010B5014602A0FFF7E1FF012010BD00009E
:1020D00053494752545245443A20526564697265E7
:1020E00063743A2063616E2774206F70656E3A20C6
:1020F0000000000010B5012805D0002103A0FFF763
:10210000C5FF012010BD09A1F8E70000534947525F
:10211000544D454D3A204F7574206F6620686561B7
:1021200070206D656D6F7279000000003A2048657F
:102130006170206D656D6F727920636F727275705A
:102140007465640008B569468DF800000320ABBED5
:1021500008BD70475FEA400C08BF91F0000F4FEADE
:102160008C234FEAC12243EA51514FEA1C5018BF59
:1021700000F5F0404FEA300018BF41F000415FEA3F
:102180006C5C00F02980BCF1FF3F08BF40F080404C
:102190007047130C06BF12044FF0100C4FF0000CE8
:1021A000130E04BF12020CF1080C130F04BF12012E
:1021B0000CF1040C930F04BF92000CF1020CD30F2E
:1021C00004BF52000CF1010C11464FF00002A0F1C7
:1021D0001F00A0EB0C00704711F0004F08BF7047C4
:1021E00031F000413FF4D5AF0B0C06BF09044FF0AE
:1021F000100C4FF0000C0B0E04BF09020CF1080C80
:102200000B0F04BF09010CF1040C8B0F04BF8900F4
:102210000CF1020CCB0F04BF49000CF1010CCCF106
:102220002003A0EB0C0022FA03F302FA0CF241EABD
:10223000030100F10100704720F07F4C80EA0300A9
:1022400023F07F47ACEB070303F57C5300F000401D
:1022500003F1FF032DE980494FEA154B09B44FEA1A
:10226000144325EA0B4E24EA03480FF2042606EB3A
:10227000132749083E785FEA320203FB0667C7F579
:10228000000707FB06F64FEA54374FEAD64606F139
:10229000020607FB066CCCF1005C4FEA1C472CEAF7
:1022A000074C07FB06F40CFB06F504EB15464FEA5A
:1022B000961634BF00204FF000404FEAD13706FB9E
:1022C00007FC4FEA1C4C0CFB0BF7D21B03FB0CF773
:1022D00061EB07010CFB0EF7B0EB074072EB174206
:1022E0000CFB08F734BFA2EB0742B2EB074261EBED
:1022F00017414FEA0C444FEA910706FB07FC4FEAEF
:102300001C4C0CFB0BF7B0EBC74072EB573203FBD6
:102310000CF734BFA2EBC742B2EBC74261EB5731B7
:102320000CFB0EF7B0EBC70072EB57720CFB08F713
:1023300034BFA2EBC702B2EBC70261EB5771039F38
:102340004FEA816141EA921104EBCC044FEAD137A4
:102350004FEA826206FB07FC42EA90124FEA806075
:102360004FEA1C4C0CFB0BF7D21B03FB0CF761EB89
:1023700007010CFB0EF7B0EB074072EB17420CFBAA
:1023800008F734BFA2EB0742B2EB074261EB1741FB
:102390004FEA8C554FEA910704EB9C2406FB07FC9F
:1023A0004FEA1C4C0CFB0BF7B0EBC74072EB5732FB
:1023B00003FB0CF734BFA2EBC742B2EBC74261EBA1
:1023C00057310CFB0EF7B0EBC70072EB57720CFBEA
:1023D00008F734BFA2EBC702B2EBC70261EB57713B
:1023E00015EB4C254FEA816141EA92114FEA826276
:1023F0004FEAD13742EA901206FB07FC44F1000491
:102400004FEA80604FEA1C4C0CFB0BF7D21B03FB1E
:102410000CF761EB07010CFB0EF7B0EB074072EB1A
:1024200017420CFB08F734BFA2EB0742B2EB07429E
:1024300061EB174115EB1C154FEA813141EA9241DE
:102440004FEA823242EA90424FEA80304FEA0C76FD
:1024500044F1000448EA03434EEA0B484FF0000EF3
:10246000B2EB080C71EB030724BF624639464EEB12
:102470000E0E4FF0000B0018524149414BEB0B0B75
:10248000B2EB080C71EB03077BF1000B24BF624633
:1024900039464EEB0E0E4FF0000B001852414941E9
:1024A0004BEB0B0BB2EB080C71EB03077BF1000B52
:1024B00024BF624639464EEB0E0E51EA020718BFA2
:1024C00046F0010616EB0E7655F1000254F10001BC
:1024D00003D5BDE88901BDE80088BDE88901BDE8F4
:1024E0000048B619524141EB0101A3F101037047C5
:1024F00080807F7E7D7C7B7A797877767675747341
:10250000727171706F6E6E6D6C6C6B6A6A696868FF
:10251000676666656464636362616160605F5F5E95
:102520005E5D5D5C5C5B5B5A5A595958585757560B
:102530005655555554545353525252515150505070
:102540004F4F4F4E4E4D4D4D4C4C4C4B4B4B4A4AC2
:102550004A49494948484847474747464646454506
:10256000454444444443434343424242424141413F
:10257000002B9C4630D477002BD01CB54FEA370790
:1025800003B44FF010004FF01001BAF1000F06D065
:10259000BCF1000FDCBF40F0080040F008014FF034
:1025A00000000FBCBDE810400BF1010BBBF1010FA7
:1025B00008BF5FEA170722BF12F1010211F1010102
:1025C0004FF0004143F1000300F0004043EA0000F7
:1025D0007047F9D35708D0E746EA064613F1400F93
:1025E0004FEA16461FDD13F1200FDFBF16430A46E0
:1025F000002120335B42BED0C3F1200746EA0646E5
:1026000002FA07F74FEA164646EA0706C3F1200723
:1026100022FA03F201FA07F721FA03F14FF000035F
:1026200042EA0702A7E746EA020646EA06464FEAFA
:10263000164646EA0106BCBF46EA0646360C4FF08F
:1026400000034FF000024FF0000194E72DE9804CA9
:102650009A46934670B491E8380007C831EA400CB6
:1026600048BF34EA430C03D5FFF7E6FDFFF780FFD0
:10267000F0BCBDE8008C2DE9804C9A46934670B4BE
:1026800091E8380007C810F0804F08BF13F0804F62
:1026900003D100F005F8FFF76BFFF0BCBDE8008C3C
:1026A00020F07F4780EA030023F07F4C07EB0C0308
:1026B000A3F57C5300F00040A3F1FE0392F0000F5D
:1026C00000F0B38095F0000F00F077802DE901490C
:1026D0004FEA11404FEA144621EA004800FB06FC8D
:1026E00024EA064708FB06F607FB08F800FB07F795
:1026F00018EB06484CEB164C4FEA124B18EB074808
:102700004FEA15464CEB174022EA0B4E0BFB06FC3A
:1027100025EA06470EFB06F607FB0EFE0BFB07F746
:102720001EEB064E4CEB164C4FF000061EEB074E10
:102730004CEB174B18EB0B0840F1000018EB0E0B9D
:1027400058EB000840F100008F1A4FF000013CBF29
:10275000C943661B14BFB5EB040C00213CBFC94341
:10276000F61B4FEA17444EEA8E0E27EA04454FEA5D
:102770001C4704FB07622CEA074C05FB07F70CFB20
:1027800005F604FB0CFC16EB074642EB174216EB72
:102790000C4642EB1C421BEB060658EB0202414181
:1027A00046EA9E0601D5BDE80189B619524141EBC2
:1027B0000101A3F10103BDE801894FEA14454FEA85
:1027C000114724EA054621EA074C05FB07F406FBFE
:1027D00007F70CFB06F105FB0CFC11EB074144EB82
:1027E00017444FEA124711EB0C4144EB1C4422EA18
:1027F000074C05FB07F206FB07F70CFB06F605FB8B
:102800000CFC16EB074642EB174216EB0C4642EB6C
:102810001C456A1854F1000148BF7047B61952416F
:1028200041EB0101A3F10103704795F0000F37D090
:102830004FEA11424FEA144721EA024624EA074CC4
:1028400002FB07F106FB07F70CFB06F402FB0CFC8E
:1028500014EB074441EB17414FEA154714EB0C44C6
:1028600041EB1C4125EA074C02FB07F506FB07F785
:102870000CFB06F602FB0CFC16EB074645EB174576
:1028800016EB0C4645EB1C42121951F1000148BFF2
:102890007047B619524141EB0101A3F101037047A2
:1028A0004FEA14454FEA114724EA054621EA074C4E
:1028B00005FB07F106FB07F70CFB06F24FF00006DD
:1028C00005FB0CFC12EB074241EB174112EB0C42EB
:1028D00051EB1C4148BF7047921841EB0101A3F135
:1028E0000103704710B501F077FDBDE8104001F01D
:1028F0001DBC0021016041608160C1607047000023
:1029000025482021C0F8A011D0F8A01111F0200F07
:1029100005D000BFD0F8A01111F0400FFAD002216D
:10292000C0F804110022C0F8A821C0F8AC21012190
:10293000C0F80C110B23C0F88430AA23C0F88C30E7
:102940004FF0550CC0F88CC0C0F88010C0F88C3027
:10295000C0F88CC0D0F8881011F0806FFAD0032135
:10296000C0F88010C0F88C30C0F88CC0D0F8881047
:1029700011F0407FFAD00521C0F808110749C0F8CE
:10298000C410C0F8C821016843F23A0221F4704132
:10299000114301607047000000C00F40DE8728042B
:1029A00070B504460068012200210369204698475B
:1029B000050048BF70BD206802220021036920463F
:1029C0009847064620680022294603692046984712
:1029D000304670BD0020704710B50C46001D02F057
:1029E00079F8204610BD00EB01108169002908BF6D
:1029F000704709680C300847704770472DE9F04769
:102A00008A4684B024494FF00008E0E802181C46CA
:102A1000914640F8048B02231022204900F08EFDDD
:102A2000A0F10C050027046205EB071000F10C046F
:102A30006E46CDF80080CDF80480CDF80880CDF842
:102A40000C80B4420DD0E168204600291CBF896883
:102A50008847039818B1426831462046904703984A
:102A6000E0600399684600291CBF896888477F1C7D
:102A7000022FD9D34A465146281D01F0D3FE281D06
:102A8000E96A01F0EDFD2A460549281D01F08AFF9B
:102A900004B02846BDE8F08714590000F328000070
:102AA000E72900002DE9F043044689B03C4800279F
:102AB000B9462060CDF81090CDF81490CDF818905C
:102AC000CDF81C90206804AE07F0FF08016820468E
:102AD000884700F0A3FF079804EB08150028A869B1
:102AE0001AD0002808BF02F0AFF80C35B5420DD05F
:102AF000E968284600291CBF89688847314607983D
:102B000010B14268284690470798E8600122414684
:102B1000201D01F055FF28E0002818BF02F0C4F87E
:102B20006E460C35CDF80090CDF80490CDF80890A5
:102B3000CDF80C90B5420DD0E968284600291CBF9D
:102B4000896888473146039810B142682846904703
:102B50000398E8600399684600291CBF8968884784
:102B600000224146201D01F02BFF00F0BBFF206832
:102B7000416820468847079804AA10B1816810462A
:102B800088477F1C022F95DB02231022054904F1A0
:102B90000C00FDF7D7FE09B02046BDE8F083000029
:102BA000145900006150000030B583B005463A204A
:102BB0008DF80000CDF801506846FDF756FD040081
:102BC00008D02868C1692846884718B120460021E6
:102BD000FDF772FD03B0204630BD000070B5174C04
:102BE00005462068002804BF201D2060261DB04235
:102BF00004D05D221249134801F00EFB0021246825
:102C0000114B1022084600BF53F821C0AC4508BF45
:102C100043F82100491C521EF6D10848002C04BF7D
:102C2000011D01600068B04208BF70BD5D22BDE8B3
:102C300070400349034801F0EFBA0000D0000010D3
:102C4000585A0000445A0000B80200100021FDF755
:102C500033BD000007480168002904BF011D016061
:102C6000001D814208BF70475D220349034801F0FF
:102C7000D3BA0000F4000010585A0000445A000073
:102C80002DE9F8430446006888461D46016817464A
:102C9000089E204688472068016820468847DFF85C
:102CA0004890D9F80000A04205D0201DA16801F08D
:102CB00057F8C9F80040206841682046884786F0E8
:102CC000010000902B463A464146201D01F0C2F813
:102CD00006462068416820468847B54214BF012057
:102CE0000020BDE8F8830000F00000102DE9F84353
:102CF0000446006888461D4601681746089E20461F
:102D000088472068016820468847DFF84890D9F84E
:102D10000000A04205D0201DA16801F021F8C9F8EB
:102D20000040206841682046884786F001000090F6
:102D30002B463A464146201D01F064F906462068BC
:102D4000416820468847B54214BF01200020BDE8F5
:102D5000F8830000F000001007480168002904BF54
:102D6000011D0160001D814208BF70475D220349BB
:102D7000034801F051BA0000F4000010585A000056
:102D8000445A000070B5044600680D4601682046AC
:102D900088472946201DA56000F0E2FF0348046033
:102DA000206841682046BDE870400847F0000010E8
:102DB00010B5044606482060002060600548A06009
:102DC000201D00F0DBFF04480460204610BD000019
:102DD0002C590000A0860100F000001070477047D9
:102DE0007047000010B51C46029BFFF707FE214606
:102DF000303000F05FF8044940F8301D7C31416309
:102E00005C39016310BD00004459000010B507494A
:102E100040F8341B7C3140F804195C39016000F043
:102E200081F8BDE810403038FFF73CBE445900003F
:102E300070470020704700207047002070472DE940
:102E4000F041054600680F460C468E18C16C2846B6
:102E50008847B4420AD0286814F8011B426C2846FF
:102E60009047B0F1FF3F18BFB442F4D12868016D1C
:102E700028468847E01BBDE8F081002070470FB46A
:102E800070B504460068C16C2046884706AD60698D
:102E9000FDF785FB2A4660690599FDF75FFB05464E
:102EA0002068016D20468847284670BC5DF814FBF9
:102EB0007047000010B5104A40F8042B002200F0C3
:102EC0007BF8041F0D4820605C306060002060616A
:102ED0000BA1204600F036F801000846616102D0DF
:102EE000FFF7B4FE05E0FDF7C5FA016805A000F0A4
:102EF00043FE204610BD0000C8580000D059000015
:102F0000772B000053747265616D206F626A2066D2
:102F100061696C7572652C206572726E6F3D2564F7
:102F20000D0A000010B50446054820605C30606062
:102F30006069FDF7CBFB201D00F05EF8001F10BD9F
:102F4000D0590000FFF730BE007B704770B50646D1
:102F50000D46154802F06EF814480468F4B1A068F4
:102F6000C8B12A463146FDF7F6FBA0B9A068FDF7C7
:102F7000D3FBA8420FD10C480168002904BF011DF2
:102F80000160001D814204D05D220949094801F019
:102F900043F9204670BD6468002CE0D1024802F07D
:102FA00049F8002070BD0000100100100C01001055
:102FB000585A0000445A000070B504460B480026D9
:102FC000A160C4E900060D462273094802F032F8F8
:102FD000002D08BF666003D0064801686160046088
:102FE000034802F027F8204670BD00003C5A00005C
:102FF000100100100C01001010B5044610482060AC
:10300000104802F017F8A06878B10F490868A0428C
:1030100004BF6068086008D04168A14203D0084638
:103020004968A142FBD161684160064802F002F89C
:10303000207B002804BF201FFFF7D0FD204610BDD5
:103040003C5A0000100100100C01001010B504469D
:10305000406818B1FFF778FF012801D0002010BDAB
:103060006068002818BF001F10BD10B504464068F6
:1030700010B1FFF769FF08B1002010BD606800289B
:1030800018BF001F10BD4068002818BF01207047FE
:1030900010B54068002808BF10BDFFF755FF002895
:1030A0000CBF0120002010BD0068704710B5044619
:1030B00000202060606008782F280DD1487858B132
:1030C0004B1C00212360226810782F2806D038B1CD
:1030D000501C491C2060F6E7204610BD501C2060A3
:1030E0001846FFF733FF6060204610BD10B5044658
:1030F00008220021204600F0F9F8002801DD012017
:1031000010BD0020FCE770B504460D46207E022865
:1031100001D1012070BD0326207E00B9062633466A
:103120002A460121204600F027F8F3E7F8B50546C6
:103130000C4616462C766006030EFD222A212846F0
:10314000009600F025F9F8BDF8B506460C46154680
:10315000E006030EC7222A213046009500F018F938
:10316000F8BD70B504460D46164601233246294681
:10317000204600F001F870BD7FB582B004461546C8
:103180001E460120034603AA3A2100902046FFF77D
:10319000ADFD10B1012006B070BD002033462A46B7
:1031A0003A2100902046FFF76BFDF4E701464FF40B
:1031B00080600A7E012A00D140204A7E012A02D086
:1031C000022A0BD104E0024600EBD273581005E04E
:1031D0000246C31700EB9373981000BF00BF7047FF
:1031E0002DE9FC4107460C4615461E466946384601
:1031F000FFF789FF10B10120BDE8FC81387E80B95E
:103200006946384600F09DF820600DF1020138460D
:1032100000F097F8286001A9384600F092F8306075
:1032200010E06946384600F05DF820600DF10101BC
:10323000384600F057F828600DF10201384600F0DA
:1032400051F830600020D7E77CB506460C4615469D
:10325000002001908DF804408DF80550022301AA4A
:103260003A2100903046FFF741FD7CBD2DE9FE4339
:1032700007460C4615461E4600200290019000901D
:103280006B4601AA02A93846FFF7AAFF10B1012038
:10329000BDE8FE833846FFF789FF80464246384640
:1032A000029900F0A8F8C4E90001424638460199A5
:1032B00000F0A1F8C5E9000142463846009900F047
:1032C0009AF8C6E900010020E2E7F8B505460C4689
:1032D00016466C762346FC220E212846009600F006
:1032E00057F8F8BD0246087840B27047F8B5064670
:1032F0000C46154600200090E1B26A463046FFF7C2
:1033000030FF08B10020F8BD9DF800002840FAE722
:10331000F8B505460E461446002000906A46314630
:103320002846FFF71EFF08B10020F8BD9DF80000F9
:10333000204300909DF8002031462846FFF784FF87
:10334000F3E708B502460020009008788DF80100E8
:1033500048788DF80000BDF90000001108BDF8B5EF
:1033600005460E461446002000906A46314628461F
:10337000FFF7F7FE08B10020F8BD9DF800002040DF
:1033800000909DF8002031462846FFF75DFFF3E7E7
:103390002DE9F8430746884614461D46089E36B177
:1033A000384600F03CF810B10120BDE8F883002059
:1033B00000906A4641463846FFF7D3FE08B1012027
:1033C000F3E79DF80000204000909DF8000028439E
:1033D00000909DF8002041463846FFF735FF08B1C0
:1033E0000120E2E72EB1384600F021F808B10120B3
:1033F000DBE70020D9E72DE9F04782460C469146ED
:10340000484601F08FFF05460E46204601F08AFF30
:1034100007462A46334601F02DFEBDE8F08710B579
:103420000446FE222A212046FFF799FF10BD10B561
:10343000044601222A212046FFF76AFF10BD000042
:103440002DE9F04104460E4617461D463A463146E0
:103450002046FFF7ADFC0446E5601E4909B1303156
:1034600000E0002108461CA1FFF709FD194909B138
:10347000303100E0002108461CA1FFF700FD204686
:10348000E168FFF77FFC3B2020613A206061022069
:103490002076012200212046FFF748FE03206076B7
:1034A000012200212046FFF710FF0A4909B13031FF
:1034B00000E0002108460EA1FFF7E1FC054909B133
:1034C000303100E00021084608A1FFF7D8FC204673
:1034D000BDE8F0814C0100104372656174696E674C
:1034E000204D4D4138343532000000000D0A0000F7
:1034F000446F6E650000000000BF00BF00BF00BF4A
:1035000000BF00BF704770473038FFF765BA70479B
:10351000490050EAC12018BF04204A0D18BF40F0EE
:10352000010040F2FF72B2EB515F08BF40F00200B1
:10353000012808BF05207047012070472DE9F041A0
:103540001C4617460E00804607D0054602E0284676
:10355000B0473D442046641EF9D24046BDE8F081A4
:103560000020FDF7C3BF000038B5194C194D1821D4
:103570002046FDF76DF92946204600F095FB00BF77
:10358000144A313A511E1448FFF712FC0446134AFC
:103590001349FFF7D1FF4FF4165000230D4A2F3A7D
:1035A000511E00900F48FFF71DFC04460B4A0E49C0
:1035B000FFF7C2FF49F64043064A313A511E0B4815
:1035C000FFF73EFF0446054A0949FFF7B5FF38BD3E
:1035D0002801001032C00920400100100000000046
:1035E000DD2D00004C0100100D2E00009801001090
:1035F000F934000010B500F009F810BD30380A2881
:1036000001D20120704700207047000002486A463E
:1036100020F00700704700000F05001010B5054CA2
:1036200021686006C422FDF7E1F86006206000F022
:10363000D4FE10BD08ED00E00328BCBF0020704799
:1036400010B500220E4901EB800151F80C0C41F835
:103650000C2C68B101684969884704005CBF0020F0
:1036600010BDFCF707FF614201604FF0FF3010BD55
:10367000FCF700FF092101604FF0FF3010BD000092
:10368000B802001010B5032805DAFCF7F3FE052197
:103690000160881F10BD0D4901EB800050F80C0C33
:1036A00060B10168896A8847040058BF10BDFCF703
:1036B000E1FE614201604FF0FF3010BDFCF7DAFE21
:1036C000092101604FF0FF3010BD0000B80200106A
:1036D0000328BCBF0120704710B50C4901EB8000E6
:1036E00050F80C0C58B10168C9698847040058BFEC
:1036F00010BDFCF7BFFE61420160002010BDFCF769
:10370000B9FE09210160002010BD0000B8020010C0
:103710002DE9F0470E4684B081467549FDF7C0F8A3
:10372000754D744C6F1E20B374494846FDF7B8F8C8
:1037300000282ED072494846FDF7B2F8002838D04C
:10374000704C2068002804BF201D2060251DA84261
:1037500004D05D226C496D4800F05EFD21686C4F1D
:10376000002400BF57F8240098B3641C102CF9D330
:1037700032E0206848B92A463946664801F052F8D6
:103780004FF41651634800F06BFF04B00020BDE811
:10379000F087206848B92A4639465E4801F042F869
:1037A0004FF416515B4800F05BFF04B00120BDE808
:1037B000F087206848B92A463946564801F032F861
:1037C0004FF41651534800F04BFF04B00220BDE8FF
:1037D000F087FFE7102C15D3FCF74CFE1821016091
:1037E00048480168002904BF011D0160A94204D0B6
:1037F0005D224549454800F00FFD04B04FF0FF3011
:10380000BDE8F0874FF0FF383E4847F82480002994
:1038100004BF011D01600068A84204D05D223A493E
:103820003A4800F0F9FC4FF0000ACDF808A099F8EA
:1038300000003A2808BFD9F8010010D04946684670
:10384000FFF734FC6846FFF71EFC1325D8B3684623
:10385000FFF71EFC0028684608D0FFF706FC029020
:1038600047F8240004B0E01CBDE8F087FFF7EEFB4A
:1038700048B316F0020F18BF02252ED016F00C0F19
:1038800018BF45F4007516F0040F18BF45F48065A5
:1038900006466846FFF708FC024630682B4602A938
:1038A000D0F808C03046E047002808BF0298D7D0BB
:1038B0000546FCF7DFFD6942016047F824A004B02B
:1038C0004046BDE8F087FFE7FCF7D4FD056047F808
:1038D00024A004B04046BDE8F08716F0040F18BFDE
:1038E0000125CBD116F0080F14BF09250025C5E727
:1038F0006C560000D800001003C009207356000069
:103900007B560000D0000010585A0000445A0000B6
:10391000B8020010E000001010B50022032806DAFB
:10392000FCF7A8FD1D2101604FF0FF3010BD0D4BCD
:1039300003EB800050F80C0C60B103681B699847DA
:10394000040058BF10BDFCF795FD614201604FF0C7
:10395000FF3010BDFCF78EFD092101604FF0FF30F4
:1039600010BD0000B802001070B515460E460328C1
:1039700018DA1948006848B9184A1948511E00F069
:1039800051FF4FF41651164800F06AFE0024002D36
:1039900006D9315D124801F09DF8641CA542F8D8A3
:1039A0002C460FE00F4901EB800050F80C0C58B189
:1039B0000168CB6831469847040003D5FCF75AFDEF
:1039C00061420160281B70BDFCF754FD09210160B4
:1039D0004FF0FF3070BD0000D800001003C0092078
:1039E000E0000010B802001070B50D46044600F06B
:1039F00015F82088401B85B2258000F073F8284612
:103A000070BD70B50D46044600F008F820882844C3
:103A100085B2258000F066F8284670BD70B5EFF3DA
:103A20001080012121EA000080F0010572B60D4CE2
:103A30006068002808BF25706068B0F1FF3F04D1BE
:103A4000432209A118A000F0E7FB606828B125B95E
:103A5000472205A11EA000F0DFFB6068401C6060EB
:103A600070BD000000010010433A5C6D6A5C776F26
:103A7000726B73706163655C626D5F777261705CBD
:103A8000313636355C6D6265642D6F735C706C61C8
:103A900074666F726D5C6D6265645F637269746990
:103AA00063616C2E63000000696E746572727570DC
:103AB000745F656E61626C655F636F756E7465726D
:103AC000203C2055494E5433325F4D415800000090
:103AD000696E74657272757074735F646973616224
:103AE0006C65640010B50E4C6068002808BF10BDFE
:103AF000EFF31080012121EA000090F0010F04D1C2
:103B0000582208A117A000F087FB6068401E606083
:103B10006068002806BF2078002810BD62B610BD7E
:103B200000010010433A5C6D6A5C776F726B7370D2
:103B30006163655C626D5F777261705C31363635EA
:103B40005C6D6265642D6F735C706C6174666F721E
:103B50006D5C6D6265645F637269746963616C2E2C
:103B600063000000696E74657272757074735F64CF
:103B7000697361626C6564000FB4084810B5017820
:103B800000291CBF10BC5DF814FB0121017003A9C2
:103B9000029800F0F5FB012000F002F8FC00001094
:103BA00004460848FCF7FBFC0748FCF7F8FC00F06B
:103BB00011FC002818BF00F04DFD002C18BF00F0CC
:103BC00055FBFEE7480400109C0400108A68002A98
:103BD00001DCFDF7EBB9521E8A604A68C0B2531C83
:103BE0004B6010707047000000487047BC570000E1
:103BF00070B5044600680D46B0F1FF3F04D12C2299
:103C000009490AA000F008FB45B1012D18BF70BD9D
:103C1000A068016862681143016070BDA068016816
:103C200062689143F8E70000A05A00006F626A2DB5
:103C30003E70696E20213D202850696E4E616D6591
:103C4000294E430070B50C4605460160B1F1FF3FB7
:103C500008BF70BD0021204600F0C0FB04F01F002B
:103C6000012101FA00F0686024F01F0000F1180142
:103C7000E960091D296108396961A86070BD70B5E6
:103C8000032605460C46FFF7DDFFB4F1FF3F08BFF2
:103C900070BD00212846FFF7ABFF31462846BDE83E
:103CA000704000F059B8000070B50D460446022679
:103CB000FFF7C8FFB5F1FF3F08BF70BD2068B0F146
:103CC000FF3F04D124220849084800F0A5FA2169E1
:103CD0006068086001212046FFF78AFF31462046D0
:103CE000BDE8704000F038B8485B0000403D00007F
:103CF0002DE9F04104460E4602271546FFF7A2FFC4
:103D0000B6F1FF3F08BFBDE8F0812068B0F1FF3F8A
:103D100004D1242209490AA000F07EFA6068002D2F
:103D200014BFE1682169086001212046FFF760FFA8
:103D300039462046BDE8F04100F00EB8485B00006F
:103D40006F626A2D3E70696E20213D202850696E99
:103D50004E616D65294E4300006800F06DBB0000A8
:103D6000054A126892084900B2FBF1F102685161FC
:103D70000068016170470000E80000102DE9F04183
:103D80000E46044615462849304600F0CDFB07464E
:103D90002649284600F0C8FB0146384600F0A6FB3D
:103DA0002060B0F1FF3F04D16322214921A000F03F
:103DB00033FA2068A0F180412348B1F5E03110D0FA
:103DC000B1F5802F04BFD0F8C41041F400210FD00A
:103DD000B1F5042F04BFD0F8C41041F0806107D0C2
:103DE00008E0D0F8C41041F08001C0F8C41001E030
:103DF000C0F8C4101548164900688008B0FBF1F0FF
:103E0000216848612168086121683C208861216837
:103E1000402008600449304600F0B4FB2846BDE865
:103E2000F041024900F0AEBBD4550000105600002E
:103E3000F45A000028696E74296F626A2D3E693257
:103E40006320213D204E430000C00F40E8000010D9
:103E5000400D03002DE9F05F1F460368DDF828B030
:103E6000D3F800C04FF034041CF0080F4FF02006C8
:103E70009C6104684FF0240323604FF008031CBFCB
:103E8000D0F800C0CCF81830D0F800C0DCF8004002
:103E9000DFF8348114F0080F04BF0124454608D12F
:103EA00002E0641CAC4204DCDCF8009019F0080F5E
:103EB000F7D0DCF80440CCF81860102C18BF082CA0
:103EC00005D000F083F86FF00100BDE8F09FD0F856
:103ED00000C041F00101CCF8081001688B61D0F8F6
:103EE00000C0DCF8001011F0080F08BF01210AD152
:103EF00004E000BF01F10101414504DCDCF80040B1
:103F000014F0080FF6D0DCF80410402905D000F0BA
:103F10005DF84FF0FF30BDE8F09F0025A7F1010AE2
:103F20004FF00409BAF1000F26DD0168C1F80090D6
:103F300001688B610168D1F800C01CF0080F04BF54
:103F40000124C44607D102E0641C644503DC0E680A
:103F500016F0080FF8D0D1F808C049680CF0FF0C33
:103F6000502904D000F032F82846BDE8F09F02F84E
:103F700005C06D1C5545D8DB0168C1F81890016873
:103F80008B6101680B6813F0080F08BF012308D18B
:103F900002E05B1C434504DCD1F800C01CF0080FB4
:103FA000F7D08B684968DBB2582904D000F00EF8CE
:103FB000781EBDE8F09F5355BBF1000F18BF00F00D
:103FC00005F83846BDE8F09FA08601000268102180
:103FD00011600268082191610268106810F0100FEA
:103FE0001CBF0120064909D004E0401C884201DDC5
:103FF00001207047136813F0100FF6D100207047AE
:10400000A08601002DE9F047D0F800C01E46DDF87B
:104010002080DCF800304FF0340413F0080F4FF02C
:104020002005CCF8184004684FF0240CC4F800C0F8
:104030004FF008071CBF03689F61D0F800C0DCF890
:10404000003013F0080F384B04BF0124994608D103
:1040500002E0641C4C4504DCDCF800A01AF0080FF8
:10406000F7D0DCF80440CCF81850102C18BF082CFE
:1040700005D0FFF7ABFF6FF00100BDE8F087D0F887
:1040800000C001F0FE01CCF8081001688F61D0F883
:1040900000C0DCF8001011F0080F08BF01210AD1A0
:1040A00004E000BF01F10101994204DCDCF80040AA
:1040B00014F0080FF6D0DCF80410182905D0FFF72B
:1040C00085FF4FF0FF30BDE8F0870024002E22DD91
:1040D000D0F800C0115DCCF8081001688F61056848
:1040E000296811F0080F04BF01219C4608D102E0A5
:1040F000491C614504DCD5F8009019F0080FF7D091
:104100006968282904D0FFF761FF2046BDE8F087E1
:10411000641CB442DCDBB8F1000F18BFFFF756FF98
:104120003046BDE8F0870000A08601008EB0002078
:104130000C900D900A900B9000210891099130206D
:104140008DF8140031208DF8150032208DF81600FE
:1041500033208DF8170034208DF8180035208DF8A5
:10416000190036208DF81A0037208DF81B003820F2
:104170008DF81C0039208DF81D0001221748FEF72C
:10418000D5FF012211461548FFF79FF801220321B0
:104190001248FEF7D9FF12A11648FEF770FE1CE088
:1041A0000E48FEF7A3FF18B9134800F0EFFE14E025
:1041B00008AB0AAA0CA90948FFF758F8DDE908017D
:1041C000CDE90201DDE90A01CDE900010BA10948B1
:1041D000DDE90C23FEF753FE00BFE1E79801001074
:1041E0007374617274696E672074686520636F64AC
:1041F00065200A007C010010CDCCCC3D4772617671
:1042000069746965733A20256C6620256C662025E3
:104210006C660D0A0000000070B514460D46064697
:10422000FFF7FCFB23462A46314603A000F07CF84A
:10423000BDE8704000F01AB86D6265642061737368
:104240006572746174696F6E206661696C65643A49
:104250002025732C2066696C653A2025732C206C10
:10426000696E65202564200A0000000086B0FFF713
:10427000D5FB25496846FFF717FD00240098B0F1EB
:10428000FF3F04D12422214921A0FFF7C5FF039954
:1042900001980860962000F08FFE0098B0F1FF3F73
:1042A00004D1242219491AA0FFF7B6FF04990198F6
:1042B0000860962000F080FE641C042CDEDB0024E5
:1042C0000098B0F1FF3F04D12422104910A0FFF75D
:1042D000A3FF0399019808604FF4C87000F06CFECA
:1042E0000098B0F1FF3F04D12422084908A0FFF74D
:1042F00093FF0499019808604FF4C87000F05CFEC9
:10430000641C042CDCDBB8E732C00920485B0000E9
:104310006F626A2D3E70696E20213D202850696EC3
:104320004E616D65294E43000FB470B5A0B025AC49
:10433000249DFFF773FB23462A4680216846FCF73D
:10434000F3F8051E10DD0B48006820B90A4A0B4837
:10435000511E00F067FA00246E460848315D00F0F7
:10436000B9FB641CAC42F8DBFFF7BCFB20B070BCAF
:104370005DF814FBD800001003C00920E000001015
:1043800070B5A0B00C460546FFF748FB23462A4609
:1043900080216846FCF7C8F8051E10DD0A48006851
:1043A00020B90A4A0A48511E00F03CFA00246E4621
:1043B0000748315D00F08EFB641CAC42F8DBFFF770
:1043C00091FB20B070BD0000D800001003C0092090
:1043D000E000001000F036B97047704770B50D4628
:1043E0000446B0F1FF3F04D115220D490DA0FFF79F
:1043F00013FFA4F10050A0F51C2001090007C20E14
:10440000880000F1804000F53030016803239340BC
:1044100099430160016805FA02F21143016070BD21
:10442000B05B000070696E20213D202850696E4EFF
:10443000616D65294E43000070B50C460546B0F12C
:10444000FF3F04D120221A491AA0FFF7E5FEA5F18B
:104450000050A0F51C204209920002F1804202F5B2
:10446000303200F01F03D2F868C0C4F3800101FAB3
:1044700003F32CEA030CC2F868C0D2F868C04CEA17
:1044800003039366002918BF70BD02090007C10E1F
:10449000900000F1804000F53030026C03238B4027
:1044A0009A430264026C04FA01F11143016470BD85
:1044B000B05B000070696E20213D202850696E4E6F
:1044C000616D65294E4300000A68B2F1FF3F09D0D3
:1044D0000A68824201D14868704751F80C2FB2F146
:1044E000FF3FF5D14FF0FF3070470000884208BF12
:1044F0007047B0F1FF3F04BF0846704710B5B1F1F7
:10450000FF3F08BF10BD03A0FFF736FB4FF0FF30A1
:1045100010BD000070696E6D6170206D69732D6D46
:10452000617463680000000010B5B0F1FF3F08BF80
:1045300010BD0A68B2F1FF3F0CD00A68824204D174
:104540004C68B4F1FF3F0AD106E051F80C2FB2F1EC
:10455000FF3FF2D14FF0FF3402A0FFF70DFB2046E2
:1045600010BD000070696E6D6170206E6F74206602
:104570006F756E6420666F72207065726970686511
:1045800072616C0010B50446B0F1FF3F08BF10BD6A
:104590000868B0F1FF3F11D00868A04209D18968CE
:1045A0002046FFF71BFF2046BDE810400221FFF721
:1045B00043BF51F80C0FB0F1FF3FEDD1BDE8104003
:1045C00001A0FFF7D9BA0000636F756C64206E6FAD
:1045D000742070696E6F75740000000070B5054638
:1045E00000F036FC6C684FF0E040626882B1D4E9BC
:1045F000023CD2E900125E1A7CEB02061CD2C91AF8
:1046000062EB0C02B1F1E04372F1000238BF0846E0
:10461000D4E902120C18286842F10006016920460C
:104620008847284600F014FC6868D0E90212081B8D
:1046300072EB060038BF70BD28684069BDE8704065
:10464000004700000248006800F0010070470000C9
:10465000F0ED00E084B069461820ABBE04B07047AE
:104660002DE9F05F0D46064600686349884204DD87
:104670009B22624962A0FFF7CFFD3068A0F1804124
:104680006648B1F5404109D0B1F5804F11D0B1F580
:104690000C2F1BD0B1F5102F23D02EE0D0F8A8118D
:1046A00021F0C001C0F8A811D0F8A81141F04001D4
:1046B00009E0D0F8A81121F44071C0F8A811D0F891
:1046C000A81141F48071C0F8A81116E0D0F8AC111F
:1046D00021F44031C0F8AC11D0F8AC1141F4803174
:1046E00009E0D0F8AC1121F44021C0F8AC11D0F8A9
:1046F000AC1141F48021C0F8AC1149482A014FF0B7
:10470000000900684FF00108B0FBF2F1B0FBF2F3D2
:1047100002FB13028FB24946002A57D001222C46D1
:104720004FF0000C924603E04FF0000C002A47D9EE
:1047300002FB00FB4FF0004313EA4B0F0AD053007B
:104740000CEB020B43430BFB05FBB3FBFBF30AEB48
:10475000131309E093000CEB020B43430BFB05FB27
:10476000B3FBFBF30AEB5313C3F34F03002B08BF58
:104770000123BCF1000F18BF022B38BF022300FB3E
:1047800002FB0CEB020E0EFB03FE4FEACE0EBBFB50
:10479000FEFB0BF1010BD5EB5B0B48BFCBF1000B24
:1047A000A34507DA5C461F469046E146AB4508BF85
:1047B000012105D00CF1010303F0FF0C9445B7D3A0
:1047C000521CD2B2102A01D20029ADD03068017B30
:1047D00041F0800101733168380A08713068077050
:1047E000316849EA081081F828003068017B21F01F
:1047F00080010173BDE8F09F00C00940005C00002B
:1048000028696E74296F626A2D3E75617274203C4E
:104810003D20554152545F330000000000C00F405E
:10482000E80000102DE9F047884604461746534932
:104830004046FFF779FE054651493846FFF774FEBA
:1048400001462846FFF752FE0546B0F1FF3F04D16E
:104850005C224C494CA0FFF7DFFCA5F180414E489B
:104860002560B1F5404104BFD0F8C41041F0080103
:1048700017D0B1F5804F04BFD0F8C41041F010013B
:104880000FD0B1F50C2F04BFD0F8C41041F08071E7
:1048900007D0B1F5102F04BFD0F8C41041F000715B
:1048A00001D1C0F8C41020680126067220684FF0BC
:1048B0000009C0F804904FF416512046FFF7D0FECF
:1048C000002003230146024643EA800040EAC1007B
:1048D000216840EA0210087328494046FFF752FE5B
:1048E00027493846FFF74EFEB8F1FF3F03D00021BD
:1048F0004046FFF7A1FDB7F1FF3F03D00021384646
:10490000FFF79AFDA5F18040B0F5404008BFC4F81C
:1049100004900FD0B0F5804F08BF66600AD0B0F5A4
:104920000C2F08BF022004D0B0F5102F08BF0320C1
:1049300000D1606061684FF0FF30C1EBC1021749E0
:10494000034601EBC20250606268C2EBC20201EB97
:10495000C2010246C8610021204600F0EFF8A5F12F
:104960008040B0F5404018BFBDE8F0870C480660B5
:10497000D4E90012C0E90212BDE8F08784560000B5
:10498000F0560000005C000028696E7429756172A1
:104990007420213D204E430000C00F40F80200105B
:1049A000D8000010044B596040680449C0EBC000B7
:1049B00041F8302070470000D8000010F8020010C5
:1049C00041B94368DFF810C0C3EBC3030CEBC3036A
:1049D00083F8362000F002B8F802001070B40468C2
:1049E0000023A4F180459C46B5F5404504BF05234E
:1049F000DFF8C8C013D0B5F5804F04BF0623DFF839
:104A0000C0C00CD0B5F50C2F04BF0723DFF8B4C02D
:104A100005D0B5F5102F04BF0823DFF8ACC0012581
:104A200005FA01F6B2B1606830436060274800685B
:104A3000002B00EB8300C0F840C0BCBF70BC7047C7
:104A400005FA03F05909890001F1E021C1F80001DC
:104A500070BC7047012912D04268C2EBC20C1C4ADC
:104A600002EBCC0292F836C092F835201CEB020F14
:104A70001CBF70BC7047002908BF012100D0002175
:104A80006268B24362600068406805FA01F108425A
:104A90001CBF70BC7047002BBCBF70BC704705FAD0
:104AA00003F05909890001F1E021C1F88001BFF349
:104AB0004F8FBFF36F8F70BC70470000994D00009F
:104AC000AD4D0000C14D0000D54D000008ED00E0E7
:104AD000F802001070B44268174CC2EBC20204EB3B
:104AE000C2020025D2F81CC0BCF1FF3F0AD0166BF1
:104AF0003668136A1E42F7D103681B7D13F0400F1E
:104B0000F2D00BE003681B7D13F0200F02D082F877
:104B1000345003E092F83430102BE5D20268117063
:104B20004068C0EBC00004EBC00090F83410491C92
:104B300080F8341070BC7047F80200102DE9F84F6F
:104B400004460E46D4E90010DFF8ECB099469246D0
:104B5000594518BF002506D19BF810105D4621F07D
:104B6000C0018BF81010DFF8D480C0EBC00008EB58
:104B7000C0074FF0FF31F961796061680022C1EB35
:104B8000C10108EBC101204681F835201146FFF72D
:104B900025FF002E08BFBDE8F88F29495046FFF7D2
:104BA00093FC009027494846FFF78EFC022E18BF61
:104BB000032E13D1B9F1FF3F10D0584509D145B1AB
:104BC000287C40F0800028741E494846FFF7DAFC34
:104BD00004E007F11C004946FFF751F8012E1CBF05
:104BE000032EBDE8F88FBAF1FF3F08BFBDE8F88F8C
:104BF000072021680872009858450AD14DB1287CD9
:104C000040F0400028745046BDE8F84F0C49FFF7CB
:104C1000B9BC381D00225146FFF76AF861680122CD
:104C2000C1EBC10108EBC101204681F83520BDE888
:104C3000F84F0021FFF7D2BE00000140F80200103B
:104C40005C5700008057000010B5FEF7E7FE0948EA
:104C50000088A0F57F41FF3904D1FEF743FF06A08D
:104C6000FEF78AFF01210348FEF7CBFEBDE81040A6
:104C7000FEF738BF080100104465657020736C654D
:104C80006570206C6F636B20776F756C64206F7636
:104C90006572666C6F7720283E2055534852545FEA
:104CA0004D4158290000000010B5FEF7B7FE084836
:104CB000008820B9FEF716FF06A0FEF75DFF012170
:104CC0000348FEF791FEBDE81040FEF70BBF000061
:104CD000080100104465657020736C656570206C78
:104CE0006F636B20776F756C6420756E6465726698
:104CF0006C6F7720283C20302900000070B50546F5
:104D00000068C06880476868416801B3D0E9026400
:104D1000286840688047B0422CBF0021012111B1B2
:104D2000001C44F101046968C1E9020469684A6829
:104D3000D2E9003CC01A74EB0C0008D3D06848607C
:104D40006868016800291CBF90688847DBE728462F
:104D5000BDE87040FFF742BC10B504464068007CD7
:104D600098B9206800688047616800200860616821
:104D7000486062680121C2E902006068017420464F
:104D800000F066F82046FFF729FC204600F060F8A6
:104D90006068806810BD0000034A90680021C0F37D
:104DA000420000F021B8000000C00040034A9068B3
:104DB0000121C0F3420000F017B8000000000140DC
:104DC000034A90680221C0F3420000F00DB80000D1
:104DD00000800940034A90680321C0F3420000F0BC
:104DE00003B8000000C0094030B4DFF85CC0C1EB7C
:104DF000C1040CEBC403012808BF012112D0022812
:104E00001CBF30BC704700215868B0F1FF3F09D08B
:104E100018699D68056093F8360018B9506820F04D
:104E2000010050605CF83400002804BF30BC7047BB
:104E3000002901BF93F83620002A30BC7047034A8E
:104E4000526830BC10470000F8020010D800001073
:104E500070B505464068D0E902642868406880471C
:104E6000B04234BF0121002111B1001C44F1010402
:104E70006968C1E9020470BD0149012008607047FA
:104E8000004009400248416921F001014161704739
:104E9000004009404FF0E0211020C1F800027047A7
:104EA00012480168002918BF7047012101601048AD
:104EB00050F8C42F42F4000202600E48002202673C
:104EC0000D4A12689208022343600C4BB2FBF3F2C6
:104ED000521EC26041600B480949006801654FF0ED
:104EE000E0211020C1F8000170470000EC00001024
:104EF00000C00F4000400940E800001040420F0091
:104F0000094F000008ED00E00148FFF7F7BE000080
:104F1000BC570000114912480A68EAB901220A6028
:104F2000104951F8C43F43F400030B6000210167AE
:104F30000D4909688908022343600C4BB1FBF3F16A
:104F4000491EC16042600B49094A09680A654FF071
:104F5000E0221021C2F8001180687047EC000010B8
:104F60000040094000C00F40E800001040420F0020
:104F7000094F000008ED00E003498861486940F0EE
:104F800001004861704700000040094070B50949C0
:104F900000F050FA00F032FA0446FEF725FE06460D
:104FA000FFF7DAFE05463046FFF7D6FE401BA0426B
:104FB000F9D370BD0024744970B54FF47A7100FBC9
:104FC00001F5FEF711FE0646FFF7C6FE0446304621
:104FD000FFF7C2FE001BA842F9D370BD10B500292F
:104FE0000AD00878002807D005487844FBF758FC19
:104FF000002801D0002010BD0248784410BD0000F8
:105000008A0C0000820C000010B500290AD0087834
:10501000002807D005487844FBF742FC002801D05F
:10502000002010BD0248784410BD00007A0C00003A
:10503000720C000010B504460068002806BF201D51
:1050400020602068211D884204D05D220249034867
:10505000FFF7E2F8206810BD585A0000445A0000DB
:1050600010B50446C06810B18168204688472046C4
:1050700010BD00002DE9C04130B4DFF8A0C23CEA09
:10508000111418BF3CEA131400F0EC8081EA030508
:105090001CEA111444EAD57418BF1CEA131500F079
:1050A000C780A4EB05044FF0004545EAC12145EA5D
:1050B000C32341EA505143EA525304F17F749942A9
:1050C00004F500344FEAC0204FEAC22208BF9042E4
:1050D00000F09C804FEA13650FF24016765D4FEAB0
:1050E000134506FB05F7C7F1807706FB07F74FEA84
:1050F000D737A7FB03687642C8F58038A7FB06CEF2
:1051000038BFA8F1010807FB08E64FF0000EA6FB28
:10511000028CE6FB03CEDCF1000CCEF1004E38BF72
:10512000AEF1010EA6FB0C584FF000074FF0000542
:10513000E6FB0E87A1FB08C6A0FB07CE16EB0E060A
:1051400045F10005E1FB076515F1E04E7EBFA4F5D2
:1051500080345FEA46066D4116F1800745F100058F
:105160004FEA17274FEA066647EA0567A6F1DE46CB
:10517000B6F1805F4FEA15251FD9384624F0010C9F
:1051800005EBC471BCF1FE6F01EB0C1102D8F0BC51
:10519000BDE8008124425CBF01F5801E9EEAC47F09
:1051A00002D4F0BCBDE80081244238D4F0BCA1F1A7
:1051B000C041BDE8004100F01AB94FEAD22242EAEC
:1051C00043524FEAD323A7FB02864FEAD02040EA9E
:1051D000415007FB03661EEA0E0F4FEAD12105FB83
:1051E000026658BFA6EB0056B6EB00564FEA520EC9
:1051F0004EEAC37E18EB0E0E56EB530EBDD518EBE0
:1052000002085E417F1C55F10005B6E74FF480159A
:105210004FF000074FF000064FF00008ADE7F0BC7C
:105220004FF0000001F1C04101F00041BDE80081F4
:1052300011EA0C1F0CEA131500D00CE013EA0C1F46
:1052400000F025804FF00000F0BC81EA030101F07E
:105250000041BDE80081F0BCBDE8004181EA0301E6
:1052600000F0C5B8F0BCBDE8004170B500F071F8C1
:10527000097EFC3E00F007B881EA03014FF0000010
:1052800001F00041704781EA030100F0B0B8F0BCC2
:10529000BDE800414FF0000021497047FFFDFBF9D8
:1052A000F7F5F4F2F0EEEDEBE9E8E6E4E3E1E0DE59
:1052B000DDDBDAD8D7D5D4D3D1D0CFCDCCCBCAC8CB
:1052C000C7C6C5C4C2C1C0BFBEBDBCBBBAB9B8B7F2
:1052D000B6B5B4B3B2B1B0AFAEADACABAAA9A8A8E5
:1052E000A7A6A5A4A3A3A2A1A09F9F9E9D9C9C9BB3
:1052F0009A9999989797969595949393929191905E
:105300008F8F8E8E8D8C8C8B8B8A898988888787EE
:105310008685858484838382828181800000FF0763
:105320000000F87F10F0004248BF4042B0FA80F31E
:1053300010FA03F10AD0C3F11D0303F580634FEAAD
:10534000415002EB035202EBD12170474FF00000B5
:1053500070470EF1020E2EF0030E5EF8046B36421B
:1053600005D4012A43EB030515F5001F12D80128C7
:1053700041EB010C1CF5001F0CD80ED14FEAD17C7B
:1053800015F5001F0CEB4C0C0CF1020C08BF4CEB9C
:10539000D37C04E04FF0080C01E04FEAD37C0CEB27
:1053A0004C0526FA05F606F00706B6F1040C06D2FF
:1053B0000EEB860CBDE870404CF0010C6047DFE856
:1053C0000CF0090B02024FF000414FF00000A1F574
:1053D000002170BD19461046012851EB010418BF89
:1053E000D4F5001484BF002001F0004170BD08080E
:1053F000A0F500114FEA31017047000041000B0E8B
:10540000D3F19E0208D950F400034FEA032323FA94
:1054100002F048BF4042704710B500F08CF800BF62
:1054200049922480002070476FF0004282EA2000F9
:10543000704700004FF47F0C1CEAD0121EBF1CEA1C
:10544000D11392EA0C0F93EA0C0F00F0478090EA18
:10545000010F48BF42F480724FF0004C4CEA00202C
:105460004CEA012102EB0302A0FB0113A2F50002AA
:10547000002918BF43F001035B0028BF4FEA330344
:1054800042EB22425FEA132C4CEBC2502EBFBCEB26
:10549000436FB2F57C0F70474FEA036CBCF1004FCD
:1054A00008BF20F00100B2F57C0F38BF70470BD564
:1054B00082F0FF0212F5803FC8BF704700F1C04084
:1054C000D8BF00F00040704700F5000C5FEA4C0CBC
:1054D00048BF7047B0F1C04000F073B890EA010FC8
:1054E0000CEAD11348BF42F48072624538BF63456D
:1054F00004D280EA010000F00040704710B500F0CF
:105500001AF800BF8900013E00F007B800F009B8A2
:105510005FEA410C5FEA1C6C08D080EA010000F0F1
:1055200050B85FEA400C5FEA1C6CF6D14FF00040C7
:10553000A0F5800070470EF1020E2EF0030E5EF80B
:10554000044B244204D44FEA4102B2F17F4F11D8F8
:105550004FEA4003B3F17F4F0CD80ED14FEAD07C15
:10556000B2F17F4F0CEB4C0C0CF1020C08BF4CEB72
:10557000D17C04E04FF0080C01E04FEAD17C0CEB49
:105580004C0324FA03F404F00704B4F1040C06D22B
:105590000EEB840CBDE810404CF0010C6047DFE8D6
:1055A0000CF0070802024FF00040A0F5800010BD8B
:1055B0000846420018BFD2F1807288BF00F0004058
:1055C00010BDFF2141EAD050C0057047FCF726B955
:1055D000FCF75ABA00C0092000C0054003000000D3
:1055E0000AC0092000000A400200000013C0092080
:1055F00000C00540030000001BC0092000C001409E
:1056000001000000FFFFFFFFFFFFFFFF00000000A1
:1056100001C0092000C00540030000000BC00920A4
:1056200000000A400200000014C0092000C005402C
:10563000030000001CC0092000C001400100000060
:10564000FFFFFFFFFFFFFFFF000000000C00000056
:1056500020000000240000002800000030000000AE
:1056600034000000380000003C0000002F73746418
:10567000696E002F7374646F7574002F73746465A2
:105680007272000000C0092000C009400200000042
:1056900002C0092000C00040010000000AC009202B
:1056A00000800940010000000FC0092000000140F7
:1056B0000100000019C0092000C0094003000000DB
:1056C00040C00920000001400200000048C009203D
:1056D00000800940020000009CC0092000C0094071
:1056E00003000000FFFFFFFFFFFFFFFF00000000BF
:1056F00001C0092000C009400200000003C00920C9
:1057000000C00040010000000BC0092000800940DB
:105710000100000010C0092000000140010000004D
:105720001AC0092000C009400300000041C0092040
:10573000000001400200000049C00920008009402B
:10574000020000009DC0092000C0094003000000C5
:10575000FFFFFFFFFFFFFFFF0000000016C0092052
:10576000000001400100000047C009200000014086
:1057700002000000FFFFFFFFFFFFFFFF000000002F
:1057800011C00920000001400100000042C00920B2
:105790000000014002000000FFFFFFFFFFFFFFFFCE
:1057A00000000000A14E0000154F0000854E0000D3
:1057B000794E0000794F0000954E0000A45700007C
:1057C000D803001000000000000000003031323328
:1057D0003435363738394142434445464030580025
:1057E0003031323334353637383961626364656657
:1057F00040307800040000080000000000000002B3
:105800000001000010303132333435363738396119
:105810006263646566787000303132333435363710
:105820003839414243444546585000000240000088
:10583000000000A00000000005400000000000C8BB
:10584000000000000C4000000000409C0000000030
:10585000194000000020BCBE0000000034400000E1
:10586000BFC91B8E00000004B5400000504BCFD0D4
:105870006607E2CF010000006C4100003E8251AAA1
:10588000DFEEA73401000000D9420000DCB5A0E241
:105890003A301F97FFFFFFFFB4450000FD25A0C869
:1058A000E9A3C14FFFFFFFFFFF3F000000000080A2
:1058B00000000000FF3F000000000080000000002A
:1058C00000000000000000000000000000000000D8
:1058D0006135000061350000613500006135000070
:1058E00000000000D52900000000000000000000BA
:1058F000A1290000000000000000000000000000DE
:105900000000000000000000000000000000000097
:1059100000000000F9290000FB290000A52A000072
:10592000000000000000000000000000552C0000F6
:10593000592D0000DD2D00000000000000000000D7
:1059400000000000DF2D0000E12D00000D2E000002
:10595000000000000000000000000000D0FFFFFF7A
:105960000000000000000000000000000000000037
:105970003F2E0000332E00003B2E000000000000F0
:105980007B2E00000000000000000000372E000009
:105990000000000000000000000000000000000007
:1059A00000000000000000000935000000000000B9
:1059B000073500000F350000CCFFFFFF000000009E
:1059C00000000000000000000000000000000000D7
:1059D000252F000000000000000000003F2E000006
:1059E000332E00003B2E0000000000007B2E000044
:1059F0000000000000000000372E00000000000042
:105A00000000000000000000000000000000000096
:105A1000000000006135000061350000312E0000FB
:105A2000B12E0000FCFFFFFF00000000000000009E
:105A3000000000000000000000000000F92F00003E
:105A4000000000005F707472203D3D202854202A21
:105A500029265F6461746100433A2F6D6A2F776F66
:105A6000726B73706163652F626D5F777261702F07
:105A7000313636352F6D6265642D6F732F4255496F
:105A80004C442F6D6265642F706C6174666F726D2B
:105A90002F53696E676C65746F6E5074722E680058
:105AA000433A5C6D6A5C776F726B73706163655CBF
:105AB000626D5F777261705C313636355C6D626540
:105AC000642D6F735C746172676574735C544152CA
:105AD0004745545F4E58505C5441524745545F4CC3
:105AE0005043313736585C6770696F5F6170692E5B
:105AF00063000000433A5C6D6A5C776F726B737091
:105B00006163655C626D5F777261705C31363635FA
:105B10005C6D6265642D6F735C746172676574732C
:105B20005C5441524745545F4E58505C5441524773
:105B300045545F4C5043313736585C6932635F617E
:105B400070692E6300000000433A2F6D6A2F776F53
:105B5000726B73706163652F626D5F777261702F16
:105B6000313636352F6D6265642D6F732F4255497E
:105B70004C442F6D6265642F5441524745545F4C2D
:105B80005043313736382F5441524745545F4E58B1
:105B9000502F5441524745545F4C5043313736588B
:105BA0002F6770696F5F6F626A6563742E680000AB
:105BB000433A5C6D6A5C776F726B73706163655CAE
:105BC000626D5F777261705C313636355C6D62652F
:105BD000642D6F735C746172676574735C544152B9
:105BE0004745545F4E58505C5441524745545F4CB2
:105BF0005043313736585C70696E6D61702E6300AA
:105C0000433A5C6D6A5C776F726B73706163655C5D
:105C1000626D5F777261705C313636355C6D6265DE
:105C2000642D6F735C746172676574735C54415268
:105C30004745545F4E58505C5441524745545F4C61
:105C40005043313736585C73657269616C5F6170BF
:105C5000692E6300A45D0000C80000106000000011
:105C60003C030000045E000028010010E003000077
:105C7000580300001C00000043000000F8FFFFFF75
:105C80000C0000000E0000000F0000002E000000BD
:105C90001001000043000000F8FFFFFF00404040FB
:105CA00040404040404041414141414040404040EF
:105CB000404040404040404040404040400502029B
