:020000040000FA
:100000000080001051040000590400005B0400004F
:100010005D0400005F0400006104000000000000B7
:100020000000000000000000000000006304000069
:10003000650400000000000067040000690400007F
:100040006B0400006B0400006B0400006B040000F4
:100050006B0400006B0400006B0400006B040000E4
:100060006B0400006B0400006B0400006B040000D4
:100070006B0400006B0400006B0400006B040000C4
:100080006B0400006B0400006B0400006B040000B4
:100090006B0400006B0400006B0400006B040000A4
:1000A0006B0400006B0400006B0400006B04000094
:1000B0006B0400006B0400006B0400006B04000084
:1000C0006B040000000000000000000000000000C1
:1000D0000000000000000000000000000000000020
:1000E0000000000000000000000000000000000010
:1000F0000000000000000000000000000000000000
:1001000000000000000000000000000000000000EF
:1002F000000000000000000000000000FFFFFFFF02
:1003000000F002F800F096F80AA090E8000C824491
:100310008344AAF10107DA4501D100F08BF8AFF26E
:10032000090EBAE80F0013F0010F18BFFB1A43F0D3
:10033000010318477C5C00009C5C0000103A24BF5D
:1003400078C878C1FAD8520724BF30C830C144BF3A
:1003500004680C607047000000230024002500267C
:10036000103A28BF78C1FBD8520728BF30C148BF18
:100370000B6070476E2900F0AC84702900F01F8676
:10038000662905F01483652905F01183672905F0B6
:100390000E83612905F00D8303681B0A28BF41F015
:1003A0008001692900F01081642900F00D81752910
:1003B00000F00A816F2900F0AC85782900F0EB8508
:1003C000E92900F04785E42900F04485F52900F08B
:1003D0004185EF2900F0A985F82900F0EA85036836
:1003E000DB0928BF41F08001632900F0B68473293E
:1003F00000F0BB84E32901F0E983F32901F0EE83E7
:10040000002070471FB59DE8030000F08FFB01F04E
:1004100069FC04000020002104F008FA401C606020
:100420000020002104F0ECF9E06000F0EFFE00F0A5
:100430004FFB1FBD02F068FC114603B402F078FCCC
:1004400003BCFFF7DFFF02F024FA02F0A7FF000071
:100450000648804706480047FEE7FEE7FEE7FEE75E
:10046000FEE7FEE7FEE7FEE7FEE7FEE7A128000065
:1004700001030000004870479803001070B506465D
:1004800000F038FB056806F10B0020F00704B442C9
:100490009CBF002070BD2B466A68BAB11068A042AC
:1004A00010D304F1080188423CBF5068586007D35C
:1004B0005168101941601168091B0160586014608F
:1004C000101D70BD13465268002AE7D12146284608
:1004D00000F018FB0028DED170BD70B50446051F82
:1004E00000F008FB0068002C14BF446870BD002CAD
:1004F00018BFAC423CBF20466468F8D301680A18B4
:10050000AA4218BF456003D12A680546114401601C
:1005100028684119A1421CBF6C6070BD61686960A8
:1005200021680844286070BD7CB51D4616460C0045
:10053000009001D02044401E074B7B442A46694668
:100540000190304600F0DFFB05461CB100206946F3
:1005500000F0ECFB28467CBDF90700000FB404490D
:1005600010B503AA029800F005FC10BC5DF814FB5E
:10057000F003001070B50C460546012A05D0287816
:10058000800600D5EA69002302E0012305E05B1C38
:10059000934202D2E05C0028F9D1A869E618C01A9B
:1005A000A861286A18442862284600F000FB04E08D
:1005B000D5E9012114F8010B9047B442F8D328463D
:1005C00000F00BFB70BD00002DE9F0410646002451
:1005D00010687529314616A510D000F00FFB0028D1
:1005E00002DA404213A507E031688A0701D512A557
:1005F00002E0490704D511A5012401E000F007FB42
:1006000000210A2206F1240709E0B0FBF2FCB0FB4E
:10061000F2F302FB1C00303078541846491C0028C5
:10062000F3D123462A463046BDE8F04100F0F8BA3F
:10063000000000002D0000002B0000002000000042
:100640002DE9F05F894604464FF0000ADFF874B1E7
:10065000FB44C0F820A02046E1688847002874D0F9
:10066000252806D0D4E901219047206A401C206249
:10067000F1E700265F462046E168884720280546C6
:1006800007DB312D05D2781910F8200C08B106438C
:10069000F1E7B00701D526F00406C4F81CA0002736
:1006A000C4F818A02A2D09D0284602F031FB38B32F
:1006B00004EB8708303DC8F8185019E059F8041BBE
:1006C000204604EB87029161E1688847012F0546C7
:1006D00018D1E069002820DA26F020061DE0D8F8BD
:1006E000180000EB800005EB40003038C8F8180017
:1006F0002046E1688847054602F00AFB0028EED153
:10070000012F0AD02E2D08D12046E16888477F1C92
:100710000546022F46F02006C4DBA069002803DA54
:10072000404246F00106A061F00701D026F0100615
:100730006C2D0BD0682D09D04C2D39D06A2D35D0B9
:10074000742D35D07A2D33D016E038E0E1682F468D
:1007500020468847B842054609D16C2F26D04FF471
:100760008060E168064320468847054604E06C2F18
:100770001AD04FF4807006430DB3A5F1410019283B
:1007800002D8203546F400664A46294620462660AF
:100790004E46FFF7EFFD80B101280BD0F61D26F085
:1007A000070000F1080956E74020E4E78020D8E779
:1007B0000020D6E706F104094DE7284652E7206AF3
:1007C000BDE8F09F3456000070B50446C06881074C
:1007D00013D0800601D5A56A04E0A16960680844C9
:1007E0002169451A204600F0CDFC00220646294624
:1007F000204600F0F3FB304670BD002070BD70B5A0
:1008000010B1BDE87040DFE70025074C6E1E07E021
:100810002046FFF7D9FF00B13546206D20F00104D6
:10082000002CF5D1284670BD9C0300102DE9F04145
:100830000C4607461646104600F084FD2078611CE1
:1008400061280AD0722802D077283CD102E0012525
:10085000002405E00225042402E0082448F20205F1
:1008600011F8010B2B2806D0622809D011F8010CD1
:1008700074280AD00BE045F0030544F00204EFE7CA
:1008800045F0040544F00104EAE744F0100438465A
:10089000214602F0C7FA411C15D000213161716078
:1008A0004FF40071F560F1617061200704D53046A6
:1008B0000222002100F092FB306D40F00100306513
:1008C0003046BDE8F0810020FBE72DE9F0410D4600
:1008D0000646104C206DC10704D0410804D020F01A
:1008E0000104F7E722460EE05420FFF7C7FD07009A
:1008F0000ED0206D47F00101084354212065384691
:1009000000F046FD3A4629463046BDE8F0418DE705
:100910000020D6E79C03001010B5431C02E010F83D
:10092000011B71B18107FAD14FF0013202C88C1A54
:100930008C4314EAC211F9D0C01A0A0603D0C01EB3
:1009400010BDC01A10BD0A0401D0801E10BD0902DE
:10095000FCD0401E10BD40EA010370B59B072ED1AC
:100960004FF00136042A2AD308C810C99D1B9D43A5
:10097000121F15EAC61517D0D8B2E1B2401A50EAD4
:10098000056110D198B2A1B2401A50EA05410AD1CE
:1009900023F07F4024F07F41401A50EA052102D124
:1009A000180EA0EB146070BDA342DBD018BA21BAB8
:1009B000884201D9012070BD4FF0FF3070BD0AB9E7
:1009C000002070BD10F8013B11F8014B63B1A34248
:1009D0000AD1521E08D010F8013B11F8014B1BB18F
:1009E000A34201D1521EEDD1181B70BD10B5203AA3
:1009F000C0F00B80B1E81850203AA0E81850B1E8D8
:100A00001850A0E81850BFF4F5AF5FEA027C24BF8D
:100A1000B1E81850A0E8185044BF18C918C0BDE884
:100A200010405FEA827C24BF51F8043B40F8043B4D
:100A300008BF7047D20728BF31F8023B48BF11F802
:100A4000012B28BF20F8023B48BF00F8012B70475C
:100A50004FF0013C50F8042B51F8043B9A4221D14D
:100A6000A2EB0C03934313EACC1317D150F8042BD9
:100A700051F8043B9A4215D1A2EB0C03934313EABD
:100A8000CC130BD150F8042B51F8043B9A4209D1F6
:100A9000A2EB0C03934313EACC13DBD04FF000001E
:100AA000704700BFD01A01BAB1FA81F101F0180104
:100AB00022FA01F0CB40C1F12001DBB2C0B2C01A72
:100AC0002CFA01F3D11A914311EAC311E6D1704710
:100AD00070B5064C7C44064D7D4403E020682044FC
:100AE0008047241DAC42F9D170BD0000245600009F
:100AF0002456000000487047980400107047704763
:100B00007047704738B504460A460020694601F030
:100B1000C4F8002808BF38BD02460099204600F0FE
:100B20005EFC012038BD012001F0A4B8F8B501F049
:100B3000A9F8054600200C46102000BF0646A8195B
:100B4000A0420DD932466946002001F0A6F8070000
:100B500008BF01F08FF80098A04218BF0546C419DD
:100B6000FFF7C8FF05600746F01D20F00700461993
:100B7000284600F00AF8B44208BFF8BDA21B31466F
:100B80003868BDE8F84000F02ABC00210160C0E9E7
:100B9000011070471020704710B5FFF76BFC00681C
:100BA00010BD10B50446FFF765FC046010BD70B5BC
:100BB000044685690068C10601D5302600E020267C
:100BC000C00707D070BDD4E9012130469047206AA4
:100BD000401C20626D1EF6D570BD70B50446856957
:100BE0000078C00707D170BDD4E9012120209047CB
:100BF000206A401C20626D1EF6D570BD09684A054A
:100C000001D540B27047C905FCD500B270470968EC
:100C10004A0501D5C0B27047C905FCD580B27047FE
:100C20002DE9F0470D4699469246044600F1240806
:100C30000168880604D5E06921F01001216000E018
:100C40000120A84201DD471B00E00027A1697A19B5
:100C500002EB0900081AA0612078C00602D42046E1
:100C6000FFF7A5FF002608E0D4E901211AF80600E5
:100C70009047206A401C761C20624E45F4DB2078A9
:100C8000C0060AD52046FFF792FF06E0D4E901210D
:100C900030209047206A401C2062381EA7F10107CF
:100CA000F4DC07E0D4E9012118F805009047206A38
:100CB000401C2062281EA5F10105F3DC2046FFF749
:100CC0008CFF2078000602D50220BDE8F0870120C5
:100CD000FBE711680268006A530501D508700AE055
:100CE000D30501D5088006E0130603D5C217C1E974
:100CF000000200E0086001207047000001694A1C02
:100D000002610878704700B58FB0CDE9013100214C
:100D1000059105497944CDE9031011466846FFF76E
:100D20008FFC0FB000BD0000E5FFFFFF0A6802F86E
:100D3000010B0A607047D1E900239A4202D2531C8A
:100D40000B601070704710B5436913B1AFF30080AA
:100D500001E0FFF70FFC012010BD127800F1240123
:100D60000A7000224A700122EDE711684FF0FF324D
:100D7000E9E70000074B70B50D467B44FFF7C3FF62
:100D80000446284600F026F910B14FF0FF3070BD40
:100D9000204670BD4B2600002DE9FF5F15468A46B0
:100DA0000446DFF8AC80F8440027D8E900103E463E
:100DB000CDE9001010E03AF816106A4602A800F0DB
:100DC00032FF411C07D02178890603D5E269391822
:100DD00091420DD80744761C2078800602D5E06940
:100DE000B84205DDAE42E6DB3AF816000028E2D153
:100DF000A069C01BA0612046FFF7D9FED8E900100A
:100E0000CDE90010002017E03AF818106A4602A851
:100E100000F009FFB0F1FF3F81460BD000250DF136
:100E2000080B05E0D4E901211BF8050090476D1C73
:100E30004D45F7D308F10100B0428046E4DB206A5B
:100E4000384420622046FFF7C8FEBDE8FF9F00003F
:100E5000F24E00002DE9F0418046D21D22F007023B
:100E60000025D2E90002F52915A614D0011E72F161
:100E7000000106DA0023D0EB030063EB020211A6A7
:100E800008E0D8F800108B0701D50FA602E049074B
:100E900001D50EA601251146002408F1240704E01F
:100EA00000F0B7FA30323A55641C50EA0102F7D12B
:100EB0002B46324621464046BDE8F041FFF7B0BE22
:100EC000000000002D0000002B00000020000000AA
:100ED00030B4002100F1240408E002F00705D20834
:100EE000303542EA4372DB086554491C52EA030577
:100EF000F3D10468002310A2250707D5A40600D467
:100F000021B1C46901230DA2641EC46130BCFFF786
:100F100087BE10B5044621461068FFF778FE0246EA
:100F20002046BDE810400023D2E7D21D22F0070181
:100F3000D1E90023CCE700000000000030000000F1
:100F4000F0B40D460188090502D5214C7C4402E02D
:100F50001F4C7C440E34002100F1240608E002F00E
:100F60000F071209E75D42EA03721B097754491C17
:100F700052EA0307F3D102780023120704D5702D3B
:100F800006D009B1022311342246F0BCFFF748BE57
:100F900001231034F8E770B504460D462146106869
:100FA000FFF735FE024629462046BDE87040002383
:100FB000C6E7D21D22F00703D3E90023C0E7036888
:100FC000126843F0200303600823C3610023B7E7DE
:100FD000544D0000007B00F0800070472DE9F04187
:100FE000044616460D464769007B80072ED03846DA
:100FF00001F0F8FE50BB3EB3012E02D0022E25D1E7
:1010000004E0204600F0EEFD05441DE0384601F006
:10101000C3FEE168002841F01001E16005DA2046D6
:1010200000F07CF80120BDE8F081C9030BD56268AF
:10103000E16A914200D81146A26911442269891AD5
:10104000814200DD08460544002D01DA0220EAE76E
:10105000E16A6068E268814206D29103E06203D5EA
:1010600022F4003141F01002A6690027AE4213DCE1
:10107000E16A814201D90B4600E0034603EB060C0E
:101080002369ACEB030CAC4506DD814201D98C46EB
:1010900000E084469C4505D1A760276042F020000F
:1010A000A5620DE0AD1BE669AE1B8142A66000D9CA
:1010B0000846C01A281A20605819606022F02000E3
:1010C00003490840E060002084F84870ABE7000066
:1010D000BFCFD7FF70B5C468A50713D0650211D480
:1010E000B2F5807F09D0B2F5007F06D0B2F5806FEF
:1010F00008D1012300F1240106E05D1E6FF07F4658
:10110000B54201D3012070BD0161C361416024F487
:1011100070611143C160002070BD0000C16821F4FE
:10112000001141F08001C1600021816001607047C1
:101130002DE9F047814614460E464FF0FF383248FD
:10114000D5685769054209D03846A16901F06EFF9C
:10115000002811DB2C48C0430540E5602B46324691
:101160004946384601F08AFFA16920F00042B21AD0
:1011700011440028A16103D02046FFF7CFFF40466D
:10118000BDE8F08770B504460569C06A61688842A9
:1011900000D80846E16821F42011E160C90312D5A6
:1011A000A84208D02246411B2846FFF7C1FF10B1D4
:1011B0004FF0FF3070BD0020E562C4E90150E068E7
:1011C00020F48030E060002070BD10B50446C06897
:1011D00020F02000E060A16AA06988420DD020467E
:1011E000FFF7D0FFE06820F4405040F01000E060CE
:1011F000A06AA0612069E062606044F24001E0689A
:101200008843E06010BD00001000020010B54248A5
:10121000542100F0BDF84148542100F0B9F840488D
:10122000542100F0B5F83F493B483C4A3F4B086029
:101230003D490A603A491960531C0365481C106512
:10124000012008653B48344A39A17844FFF7EEFA9B
:1012500020B9384878440A3800F005FD37482F4A4D
:1012600035A17844FFF7E2FA20B9344878440A38C7
:1012700000F0F9FC32482A4A2FA17844FFF7D6FA49
:1012800020B92F4878440A3800F0EDFC402322486A
:10129000DC0000212246FFF71DFF20B125487844DD
:1012A000543800F0E0FC1D48224640230021FFF79F
:1012B00011FF20B121487844543800F0D4FC18487C
:1012C000224610230021FFF705FF002806D01C4806
:1012D0007844BDE81040563800F0C5BC10BD104839
:1012E00070B5006D20F001040B4800F02BF80B489E
:1012F00000F028F80A4800F025F809E0206D20F0F9
:101300000105204600F01EF82046FFF7E6F82C46BF
:10131000002CF3D170BD00009C030010F0030010FE
:101320004404001040010010440100104801001066
:1013300072000000E248000077000000D148000081
:10134000C14800002DE9F04704464FF000094FF076
:10135000FF37C568D4E90486A80707D02046FFF701
:1013600011FF304601F0F2FC002802DA3846BDE8F1
:10137000F087280502D54046FFF7AFF84C212046FC
:1013800000F006F8206D20F0010020654846EEE7E9
:101390004FF0000200B5134694469646203922BF0E
:1013A000A0E80C50A0E80C50B1F12001BFF4F7AF59
:1013B000090728BFA0E80C5048BF0CC05DF804EB3B
:1013C000890028BF40F8042B08BF704748BF20F8A9
:1013D000022B11F0804F18BF00F8012B7047034615
:1013E00040688C46002818BF88423CBF03464068CE
:1013F000F8D318681844884207D00CF1030020F095
:101400000700001D411A521A0146081D0A60FFF725
:1014100064B830B5B0F10A024FEA900E71F10003E2
:101420004EEA817EB0EB0E0061EB91014FEA101E97
:101430004EEA017E10EB0E0041EB11114FEA102E27
:101440004EEA016E10EB0E0041EB11214FEA104EF7
:101450004EEA014E10EB0E0041EB1141401841F1F4
:1014600000014FEAD00040EA41704FEAD10110EB91
:1014700080054FEA810444EA907444EB01046D193D
:1014800044EB0404521BA3414FF0000348BF0A324F
:1014900000D530BD401C41F1000130BD70472DE941
:1014A000FF4F0C461E464FF0FF378BB0D2E90001CC
:1014B000DDF860800A908A46C1F30A5505B93D46B9
:1014C000002108464FF00000BAF1000F00F4400080
:1014D00005DA00EB80004FF4400101EA50004FEACA
:1014E0009059B9F1010F00DDB9460A9850EA4A0057
:1014F0000ED044F61050A5F2FF3545432F14B8F135
:10150000000F1ED07542291E1EDDC9F100021CE02D
:10151000B8F1010F4FF0000001D0302103E0F24399
:1015200005E02154401CB042FBDB30460022002184
:1015300021540B99C1F80880C1E900200FB0BDE823
:10154000F08FBD1B6D1CDEE74A4600DA694206A833
:1015500000F00CFC06AB93E8070003AB83E8070040
:1015600050460A9900F0CDFD8DE80700A0F5005027
:101570001F3800900398002D0ADD42F21F014A46F1
:101580000844002303A90390684601F036F809E0F7
:10159000A0F500504A461F38002303A9039068466F
:1015A00001F040F88DE807000004000C03D04FF074
:1015B000FF30410800E01046B8F1000F03D00022D0
:1015C000009215461EE0751E05D4FFF722FF30324B
:1015D00062556D1EF9D5B3460122084302D00022A0
:1015E0007F1C04E02078302801D100227F1E002AD1
:1015F000099784D01DE0112D07DAFFF70AFF30327A
:1016000062556D1C50EA0102F5D1084302D00098E2
:10161000C8B10EE00021681E05E0235C625C6354E3
:101620002254401E491C8142F7DBAB46A81B401EDA
:101630000990002004F80B000B98099AC0F8088064
:10164000C0E9002B7AE711264FF0000857E72DE993
:10165000F04F88460446D21D22F0070191B0D1E92F
:101660000001CDE90A0101F01DFB02460B98C00FF5
:1016700001D02D2007E02068810701D52B2002E052
:10168000202101EAC000032A099001D0072A05DBC6
:1016900003464146204600F029FB0BE120788006F6
:1016A00001D5E06900E00620B8F1650F814606D05B
:1016B000B8F1660F18D0B8F1670F70D131E0002093
:1016C000B9F1110F009001DB112301E009F10103D1
:1016D0000AAA01A90CA8FFF7E2FEDDE90C700026BA
:1016E00009F10105834647E001204B4600904FF089
:1016F00000470AAA01A90CA8FFF7D1FEDDE90DB049
:101700000C995D46002610B909F101000D18B9EBDE
:10171000050003D4C0F1FF3609F10105A5EB09006E
:101720002BE0B9F1010F01DA4FF001090020B9F106
:10173000110F0090484601DD112300E003460AAA7C
:1017400001A90CA8FFF7ABFEDDE90C704D460026A1
:101750008346207800070AD4AB4500DA5D4601A82D
:10176000012D04DD411911F8011C302907D04F4526
:1017700002DA17F1040F04DA012082460FE06D1E31
:10178000EEE7002F02DCED1B3E4403E0781CA8428C
:1017900000DD7D1CB81B00F1010A4FF000472078E6
:1017A000000703D4AA4501DB4FF0FF3A0021B7F14F
:1017B000004F0DF143088DF8431024D002202B2355
:1017C000002F01DA7F422D230A21021EA0F1010021
:1017D00000DC5FB197FBF1FC97FBF1F201FB1C7C95
:1017E00017460CF1300C08F801CDEEE7A8F1010026
:1017F00003702188090501D5452100E06521A0F18C
:10180000010800F8011C09980FA9A1EB0807FF1DAA
:1018100000B10120411901EBEA70A1693844081AAE
:10182000401EA0612078C00602D42046FFF7BFF911
:10183000099828B1D4E901219047206A401C206210
:101840002078C00622D52046FFF7B1F91EE0002E11
:1018500004DBB34502DD01A8805D00E03020D4E95F
:1018600001219047206A401C2062761CAAF10100E9
:101870005FEA000A0AD100F035FAC0680168405CEE
:10188000D4E901219047206A401C2062281EA5F15E
:101890000105DCDC07E0D4E9012118F8010B9047D1
:1018A000206A401C2062381EA7F10107F3DC2046A5
:1018B000FFF793F9032011B041E600002DE9F04F46
:1018C00004460D46D21D22F0070089B0D0E90097EA
:1018D0004846394601F0E6F90246F80F01D02D23BB
:1018E00007E02068810701D52B2302E0202101EACF
:1018F000C0038DF820300BB1012000E00020032A46
:10190000824601D0072A04DB2946204600F0EEF982
:101910003FE12078800601D40D2500E0E569C7F39A
:101920000A560D2D49DA00214FEA175B08464FF0A1
:101930000000002F00F4400007DA00EB80004FF4B5
:10194000400100EBD07001EA60008115012901DD42
:101950004FF0FF3100224FEA850CBCF1180F06D37F
:101960001346ACF118004FF08052C24003E04FF430
:10197000801323FA0CF30CF10C0CBCF1200F04D3F0
:10198000ACF1200C09FA0CF001E007FA0CF0002988
:101990004FF0004801DD18B90FE00ED140450CD3DF
:1019A00019EB02095F4121B9404502D19F4329EA61
:1019B0000209BBEB175F00D0761C2088000502D51A
:1019C0007B48784402E07A487844193808AA3023E2
:1019D00002F80A30037C0AF10101002E0AF1020A22
:1019E00053546A4602DC4FF0300101E04FF0310100
:1019F0004FF001088DF8001002D0A6F2FF3603E088
:101A000059EA470100D06B4E002D02DC217809070E
:101A100004D54FF002082E218DF80110C446002194
:101A20000BE0C7F303433F01C35C491C6D1E02F882
:101A30000830052908F1010801DA002DF1DC002148
:101A40000CE000EB1973491C1B786D1E082902F885
:101A500008304FEA091908F1010801DA002DF0DC1D
:101A600021688B0602D516E0A8F10108E04505DDE6
:101A700002EB080313F8013C302BF5D0B8F1000F4E
:101A800009DD02EB080313F8013C2E2B03D10907F3
:101A900001D4A8F10108002D05DD3E2102F808104F
:101AA0006D1E08F10108407C002E02F8080008F1C4
:101AB000010804DA2D20764202F8080002E02B200B
:101AC00002F808000A214FF47A70864208F10108F2
:101AD0000BDB96FBF0F3303302F8083096FBF0F3A3
:101AE00008F1010800FB136601E0642E0CDB6420A2
:101AF00096FBF0F3303302F8083096FBF0F308F170
:101B0000010800FB136601E00A2E06DB96FBF1F0EC
:101B1000303002F8080008F1010896FBF1F001FBF3
:101B20001060303002F80800A16908F1010808EBE4
:101B3000050202EB0A00081AA0612078C00602D450
:101B40002046FFF734F8216A08AE01EB0A00206254
:101B500004E0D4E9012116F8010B9047BAF1010A1B
:101B6000F7D22078C00602D52046FFF720F86E464F
:101B700009E016F8010B3E280FD0D4E90121904767
:101B8000206A401C2062B8F10108F2D22046FFF71B
:101B900024F809B00320BDE8F08F206A28442062B1
:101BA00003E0D4E90121302090476D1EEBD3F8E724
:101BB0001943000002FCFFFF10B5436913B1AFF3F6
:101BC000008001E0FFF7E8F8012010BD128800F165
:101BD000240182840022C2840122EDE711684FF0C3
:101BE000FF32E9E710B50146C268900703D09006BE
:101BF00007D5886A0AE0FEF73DFC01210160881ED6
:101C000010BD8B69486818440B69C01A91F84830B8
:101C10001BB191F84910401A10BD1103FCD50028E2
:101C2000FADD401E10BD70B516460C46054600F0A4
:101C300051F8036893F80101012806D0FF2C0FD852
:101C4000185D68B101202C7070BDD3F807013246D1
:101C5000214603F2071303442846BDE870401847A5
:101C60004FF0FF3070BD10B500F0E2F9BDE8104054
:101C700000F0D9B910B500F0F5F9BDE8104000F05A
:101C8000D2B90000124B694600F580528A421A60B0
:101C900001D8114670471960704730B50C4D6B463E
:101CA000A3F580532C6822449A420FD89B1A02F560
:101CB000805003EBD37302EB6303984200D91846BC
:101CC000C01D20F007020C60101B2A6030BD000010
:101CD0004C01001010B500F005F8001D10BD00BF4C
:101CE0004D2B0000004870479C0400102DE9F04186
:101CF0001F46044603260168072A01F4006004DB3E
:101D000008B116A505E016A503E008B115A500E089
:101D100015A521F010002060A069C01EA0610FB1C0
:101D2000401EA0612046FEF742FF4FB1D4E90121D9
:101D300038469047206A401C2062C01C206206E0A2
:101D4000206AFAE7D4E9012115F8010B9047761EC5
:101D5000F8D22046FEF741FFBDE8F0814E414E002B
:101D60006E616E00494E4600696E66002DE9F047CF
:101D7000814616468AB0354878440DC88DE80D0076
:101D800032487844801C03AC0DC884E80D0041F64D
:101D90009B300844372190FBF1F290FBF1F5A5F15F
:101DA000800501FB12041B3C02D56442012000E0C7
:101DB0000020DFF898A080460027FA44AAF1BE0A66
:101DC0000EE0E0070AD03246684607EB47010123E0
:101DD0000AEB810100F026FC8DE8070064107F1CEF
:101DE000002CEED1194F7F44AE3F19E0E80715D023
:101DF00007EB04100DF1180A90E80E008AE80E00B7
:101E0000C068F04201D1981908903246012306A912
:101E100003A800F007FC03AB83E807006D10641C07
:101E2000002DE3D14FF0010332466946B8F1000FAF
:101E300003A802D000F0E1FB01E000F0F3FBC9E9E8
:101E40000001C9F808200AB0BDE8F087F43F00009F
:101E50002DE9F04705460C46C86820F4201040F4F0
:101E60008000C860800602D50846FFF7AEF9E0683A
:101E700041F282014FF0FF390140022903D0204690
:101E8000FFF74CF9B5E000F42041B1F5004F0FD158
:101E9000C00306D56168E06A884200D808466060E1
:101EA00006E02069E0626060606900F075FFA06193
:101EB000A0680022EEB200280DDAE1688B050AD492
:101EC000C043A06041F490302260E0606068411C33
:101ED00061600670A5E0E0689046226040F4005022
:101EE000E060206968BB606900F07CFF012704F1B5
:101EF0002405A0B1A08910F4407F08D0E069FEF766
:101F0000BDFA206118B1E06840F4006016E0E761B6
:101F10002561E06820F4407040F480600EE0E069E4
:101F2000FEF7ACFA00282061F1D0E06840F40060D0
:101F300010F4407FE06002D140F48070E0602069DE
:101F40006060E06825696FF0010AC1051FD561680E
:101F5000E06A884200D80846411B04D02246284641
:101F6000FFF7E6F8F0BBE068010203D5E562C4E9DB
:101F7000015854E0691CE1626160E16940F480301D
:101F8000491EC4E9021030462E70BDE8F0870102F8
:101F900002D500F480320AE06068411C616006707E
:101FA000E0680A2E40F48030E06006D00022E16A4A
:101FB0006068814203D90B4602E00122F7E703463D
:101FC000A7895B1B7F0503D4E7699F4200DDE2B16F
:101FD000814200D80146E5620F1AC4E90158002B7E
:101FE00009DD00E005E0224619462846FFF7A0F883
:101FF00008B14846C9E747B1A069E5626560C01B02
:10200000A061E06840F01000E060E068000208D5E0
:102010006168A069E562491B08446560A06150469B
:10202000B3E73046B1E7002801D000F043B870476D
:1020300010B5014602A000F043F8012010BD0000D9
:1020400053494752545245443A2052656469726577
:1020500063743A2063616E2774206F70656E3A2056
:102060000000000010B5012805D0002103A000F0F9
:1020700027F8012010BD09A1F8E700005349475295
:10208000544D454D3A204F7574206F662068656148
:1020900070206D656D6F7279000000003A20486510
:1020A0006170206D656D6F727920636F72727570EB
:1020B0007465640001491820ABBEFEE726000200EB
:1020C00070B505460C460A2000E06D1C00F011F8C2
:1020D00035B128780028F8D102E0641C00F009F836
:1020E00014B120780028F8D1BDE870400A20AFF381
:1020F000008008B569468DF800000320ABBE08BD1E
:1021000070475FEA400C08BF91F0000F4FEA8C2344
:102110004FEAC12243EA51514FEA1C5018BF00F563
:10212000F0404FEA300018BF41F000415FEA6C5CBC
:1021300000F02980BCF1FF3F08BF40F080407047AD
:10214000130C06BF12044FF0100C4FF0000C130ECE
:1021500004BF12020CF1080C130F04BF12010CF1A2
:10216000040C930F04BF92000CF1020CD30F04BFB8
:1021700052000CF1010C11464FF00002A0F11F00BB
:10218000A0EB0C00704711F0004F08BF704731F012
:1021900000413FF4D5AF0B0C06BF09044FF0100C03
:1021A0004FF0000C0B0E04BF09020CF1080C0B0FD2
:1021B00004BF09010CF1040C8B0F04BF89000CF162
:1021C000020CCB0F04BF49000CF1010CCCF1200331
:1021D000A0EB0C0022FA03F302FA0CF241EA03012D
:1021E00000F10100704720F07F4C80EA030023F0EB
:1021F0007F47ACEB070303F57C5300F0004003F18D
:10220000FF032DE980494FEA154B09B44FEA144307
:1022100025EA0B4E24EA03480FF2042606EB1327A7
:1022200049083E785FEA320203FB0667C7F50007FC
:1022300007FB06F64FEA54374FEAD64606F1020688
:1022400007FB066CCCF1005C4FEA1C472CEA074CFC
:1022500007FB06F40CFB06F504EB15464FEA961651
:1022600034BF00204FF000404FEAD13706FB07FC97
:102270004FEA1C4C0CFB0BF7D21B03FB0CF761EB7A
:1022800007010CFB0EF7B0EB074072EB17420CFB9B
:1022900008F734BFA2EB0742B2EB074261EB1741EC
:1022A0004FEA0C444FEA910706FB07FC4FEA1C4C2F
:1022B0000CFB0BF7B0EBC74072EB573203FB0CF78C
:1022C00034BFA2EBC742B2EBC74261EB57310CFB04
:1022D0000EF7B0EBC70072EB57720CFB08F734BF78
:1022E000A2EBC702B2EBC70261EB5771039F4FEA43
:1022F000816141EA921104EBCC044FEAD1374FEAF5
:10230000826206FB07FC42EA90124FEA80604FEAC5
:102310001C4C0CFB0BF7D21B03FB0CF761EB07010A
:102320000CFB0EF7B0EB074072EB17420CFB08F703
:1023300034BFA2EB0742B2EB074261EB17414FEA11
:102340008C554FEA910704EB9C2406FB07FC4FEAEF
:102350001C4C0CFB0BF7B0EBC74072EB573203FB86
:102360000CF734BFA2EBC742B2EBC74261EB573167
:102370000CFB0EF7B0EBC70072EB57720CFB08F7C3
:1023800034BFA2EBC702B2EBC70261EB577115EB8A
:102390004C254FEA816141EA92114FEA82624FEA8D
:1023A000D13742EA901206FB07FC44F100044FEAE1
:1023B00080604FEA1C4C0CFB0BF7D21B03FB0CF7A5
:1023C00061EB07010CFB0EF7B0EB074072EB174215
:1023D0000CFB08F734BFA2EB0742B2EB074261EBFC
:1023E000174115EB1C154FEA813141EA92414FEA42
:1023F000823242EA90424FEA80304FEA0C7644F152
:10240000000448EA03434EEA0B484FF0000EB2EBDB
:10241000080C71EB030724BF624639464EEB0E0EE3
:102420004FF0000B0018524149414BEB0B0BB2EB44
:10243000080C71EB03077BF1000B24BF62463946A1
:102440004EEB0E0E4FF0000B0018524149414BEB82
:102450000B0BB2EB080C71EB03077BF1000B24BFF5
:10246000624639464EEB0E0E51EA020718BF46F09F
:10247000010616EB0E7655F1000254F1000103D56A
:10248000BDE88901BDE80088BDE88901BDE80048D4
:10249000B619524141EB0101A3F10103704780805D
:1024A0007F7E7D7C7B7A79787776767574737271AE
:1024B00071706F6E6E6D6C6C6B6A6A696868676666
:1024C00066656464636362616160605F5F5E5E5DF8
:1024D0005D5C5C5B5B5A5A5959585857575656556C
:1024E00055555454535352525251515050504F4FCE
:1024F0004F4E4E4D4D4D4C4C4C4B4B4B4A4A4A491E
:102500004949484848474747474646464545454460
:102510004444444343434342424242414141002BED
:102520009C4630D477002BD01CB54FEA370703B454
:102530004FF010004FF01001BAF1000F06D0BCF1BF
:10254000000FDCBF40F0080040F008014FF0000031
:102550000FBCBDE810400BF1010BBBF1010F08BF30
:102560005FEA170722BF12F1010211F101014FF0DA
:10257000004143F1000300F0004043EA00007047CF
:10258000F9D35708D0E746EA064613F1400F4FEA61
:1025900016461FDD13F1200FDFBF16430A46002148
:1025A00020335B42BED0C3F1200746EA064602FA5A
:1025B00007F74FEA164646EA0706C3F1200722FA54
:1025C00003F201FA07F721FA03F14FF0000342EAA0
:1025D0000702A7E746EA020646EA06464FEA16461B
:1025E00046EA0106BCBF46EA0646360C4FF0000339
:1025F0004FF000024FF0000194E72DE9804C9A461D
:10260000934670B491E8380007C831EA400C48BFDF
:1026100034EA430C03D5FFF7E6FDFFF780FFF0BC7B
:10262000BDE8008C2DE9804C9A46934670B491E841
:10263000380007C810F0804F08BF13F0804F03D157
:1026400000F005F8FFF76BFFF0BCBDE8008C20F050
:102650007F4780EA030023F07F4C07EB0C03A3F5D0
:102660007C5300F00040A3F1FE0392F0000F00F055
:10267000B38095F0000F00F077802DE901494FEA13
:1026800011404FEA144621EA004800FB06FC24EA08
:10269000064708FB06F607FB08F800FB07F718EBF0
:1026A00006484CEB164C4FEA124B18EB07484FEA22
:1026B00015464CEB174022EA0B4E0BFB06FC25EAB5
:1026C00006470EFB06F607FB0EFE0BFB07F71EEB9D
:1026D000064E4CEB164C4FF000061EEB074E4CEB33
:1026E000174B18EB0B0840F1000018EB0E0B58EBE2
:1026F000000840F100008F1A4FF000013CBFC943B1
:10270000661B14BFB5EB040C00213CBFC943F61B8C
:102710004FEA17444EEA8E0E27EA04454FEA1C475B
:1027200004FB07622CEA074C05FB07F70CFB05F6D8
:1027300004FB0CFC16EB074642EB174216EB0C466B
:1027400042EB1C421BEB060658EB0202414146EAF3
:102750009E0601D5BDE80189B619524141EB010140
:10276000A3F10103BDE801894FEA14454FEA11477F
:1027700024EA054621EA074C05FB07F406FB07F7A8
:102780000CFB06F105FB0CFC11EB074144EB174475
:102790004FEA124711EB0C4144EB1C4422EA074C70
:1027A00005FB07F206FB07F70CFB06F605FB0CFC26
:1027B00016EB074642EB174216EB0C4642EB1C4564
:1027C0006A1854F1000148BF7047B619524141EBF5
:1027D0000101A3F10103704795F0000F37D04FEAD4
:1027E00011424FEA144721EA024624EA074C02FB51
:1027F00007F106FB07F70CFB06F402FB0CFC14EBDD
:10280000074441EB17414FEA154714EB0C4441EBE9
:102810001C4125EA074C02FB07F506FB07F70CFBFA
:1028200006F602FB0CFC16EB074645EB174516EBCC
:102830000C4645EB1C42121951F1000148BF70478C
:10284000B619524141EB0101A3F1010370474FEA70
:1028500014454FEA114724EA054621EA074C05FBD7
:1028600007F106FB07F70CFB06F24FF0000605FB2D
:102870000CFC12EB074241EB174112EB0C4251EBFF
:102880001C4148BF7047921841EB0101A3F10103BD
:10289000704710B501F012FABDE8104001F044B8DD
:1028A00025482021C0F8A011D0F8A01111F0200F68
:1028B00005D000BFD0F8A01111F0400FFAD00221CE
:1028C000C0F804110022C0F8A821C0F8AC210121F1
:1028D000C0F80C110B23C0F88430AA23C0F88C3048
:1028E0004FF0550CC0F88CC0C0F88010C0F88C3088
:1028F000C0F88CC0D0F8881011F0806FFAD0032196
:10290000C0F88010C0F88C30C0F88CC0D0F88810A7
:1029100011F0407FFAD00521C0F808110749C0F82E
:10292000C410C0F8C821016843F23A0221F4704192
:10293000114301607047000000C00F40DE8728048B
:102940002DE9FE43814609F0FF0001900120034676
:1029500001AA3A210090134800F0B8F800200223A1
:1029600002AA3A2100900F4800F07AF89DF808007A
:1029700080019DF8091040EAA104B4F5005F03DB73
:10298000A4F57C50FF3804B2204602F0E8F907466F
:102990000022054B02F05CF8054601F073FFBDE82C
:1029A000FE830000500100100000B0402DE9F04708
:1029B00082464FF07E51504602F0C0FE01D24FF0E9
:1029C0007E5A1749504602F0B9FD01D2DFF850A0F7
:1029D00000BF504600F092FB064602F031FC044670
:1029E0000D46104A104B2046294602F009FB07D23B
:1029F00022462B460B480D4902F038FB04460D4693
:102A000000220B4B2046294602F0FCF90646054AF7
:102A1000064B02F01DF8804602F072F9BDE8F0871F
:102A2000000080BFEA2E4454FB21F93FFB210940FE
:102A30000080664007480168002904BF011D01604D
:102A4000001D814208BF70475D220349034801F021
:102A500055B8000020010010B45D0000A05D00002A
:102A60002DE9F8430446006888461D46016817466C
:102A7000089E204688472068016820468847DFF87E
:102A80004890D9F80000A04205D0201DA16800F0B0
:102A900065FDC9F80040206841682046884786F0F7
:102AA000010000902B463A464146201D00F0D0FD23
:102AB00006462068416820468847B54214BF012079
:102AC0000020BDE8F88300001C0100102DE9F84348
:102AD0000446006888461D4601681746089E204641
:102AE00088472068016820468847DFF84890D9F871
:102AF0000000A04205D0201DA16800F02FFDC9F8FC
:102B00000040206841682046884786F00100009018
:102B10002B463A464146201D00F072FE06462068CC
:102B2000416820468847B54214BF01200020BDE817
:102B3000F88300001C01001007480168002904BF49
:102B4000011D0160001D814208BF70475D220349DD
:102B5000034800F0D3BF000020010010B45D000066
:102B6000A05D000010B504460648206000206060AB
:102B70000548A060201D00F0FFFC044804602046CA
:102B800010BD0000905D0000A08601001C01001037
:102B90007047007B7047000070B506460D4615482B
:102BA00001F05AFE14480468F4B1A068C8B12A467E
:102BB0003146FDF7D0FEA0B9A068FDF7ADFEA842F2
:102BC0000FD10C480168002904BF011D0160001DE0
:102BD000814204D05D220949094800F08FFF204658
:102BE00070BD6468002CE0D1024801F035FE002081
:102BF00070BD00003801001034010010B45D000009
:102C0000A05D000010B50446406818B1FFF7C1FF91
:102C1000012801D0002010BD6068002818BF001FE7
:102C200010BD10B50446406810B1FFF7B2FF08B1FF
:102C3000002010BD6068002818BF001F10BD40684C
:102C4000002818BF0120704710B54068002808BF51
:102C500010BDFFF79EFF00280CBF0120002010BD13
:102C60000068704710B50446002020606060087856
:102C70002F280DD1487858B14B1C002123602268C1
:102C800010782F2806D038B1501C491C2060F6E778
:102C9000204610BD501C20601846FFF77DFF606085
:102CA000204610BD490050EAC12018BF04204A0D3B
:102CB00018BF40F0010040F2FF72B2EB515F08BF55
:102CC00040F00200012808BF05207047012070472E
:102CD000012102F0A2BE0021084602F051BB000013
:102CE00010B5054A511E0548FFF73CFF0446044A4B
:102CF0000449FFF7EBFF10BD01C00920500100108F
:102D000000000000912B000010B500F009F810BD84
:102D100030380A2801D20120704700207047000097
:102D200002486A4620F0070070470000B704001010
:102D300010B5054C21686006C422FDF757FE6006F9
:102D4000206000F0BCFF10BD08ED00E00328BCBF10
:102D50000020704710B500220E4901EB800151F8A8
:102D60000C0C41F80C2C68B10168496988470400D3
:102D70005CBF002010BDFDF77DFB614201604FF09C
:102D8000FF3010BDFDF776FB092101604FF0FF30E9
:102D900010BD00006002001010B5032805DAFDF731
:102DA00069FB05210160881F10BD0D4901EB800002
:102DB00050F80C0C60B10168896A8847040058BF5C
:102DC00010BDFDF757FB614201604FF0FF3010BDB1
:102DD000FDF750FB092101604FF0FF3010BD0000EE
:102DE000600200100328BCBF0120704710B50C49D9
:102DF00001EB800050F80C0C58B10168C969884794
:102E0000040058BF10BDFDF735FB61420160002092
:102E100010BDFDF72FFB09210160002010BD00004F
:102E2000600200102DE9F0470E4684B081467549D6
:102E3000FDF70EFE754D744C6F1E20B37449484665
:102E4000FDF706FE00282ED072494846FDF700FE29
:102E5000002838D0704C2068002804BF201D206056
:102E6000251DA84204D05D226C496D4800F046FE45
:102E700021686C4F002400BF57F8240098B3641CED
:102E8000102CF9D332E0206848B92A463946664802
:102E900001F03AF94FF41651634801F053F804B0C9
:102EA0000020BDE8F087206848B92A4639465E48C8
:102EB00001F02AF94FF416515B4801F043F804B0D1
:102EC0000120BDE8F087206848B92A4639465648AF
:102ED00001F01AF94FF41651534801F033F804B0D9
:102EE0000220BDE8F087FFE7102C15D3FDF7C2FAEA
:102EF0001821016048480168002904BF011D0160D4
:102F0000A94204D05D224549454800F0F7FD04B0D0
:102F10004FF0FF30BDE8F0874FF0FF383E4847F8EC
:102F20002480002904BF011D01600068A84204D06C
:102F30005D223A493A4800F0E1FD4FF0000ACDF831
:102F400008A099F800003A2808BFD9F8010010D06D
:102F500049466846FFF786FE6846FFF770FE132570
:102F6000D8B36846FFF770FE0028684608D0FFF720
:102F700058FE029047F8240004B0E01CBDE8F0873A
:102F8000FFF740FE48B316F0020F18BF02252ED0FF
:102F900016F00C0F18BF45F4007516F0040F18BF9B
:102FA00045F4806506466846FFF75AFE02463068DB
:102FB0002B4602A9D0F808C03046E047002808BFD9
:102FC0000298D7D00546FDF755FA6942016047F8E7
:102FD00024A004B04046BDE8F087FFE7FDF74AFAB9
:102FE000056047F824A004B04046BDE8F08716F01D
:102FF000040F18BF0125CBD116F0080F14BF092507
:103000000025C5E7305B00000401001003C0092063
:10301000375B00003F5B0000FC000010B45D000067
:10302000A05D0000600200100C01001010B500222D
:10303000032806DAFDF71EFA1D2101604FF0FF306C
:1030400010BD0D4B03EB800050F80C0C60B1036811
:103050001B699847040058BF10BDFDF70BFA614289
:1030600001604FF0FF3010BDFDF704FA0921016047
:103070004FF0FF3010BD00006002001070B5154623
:103080000E46032818DA1948006848B9184A194842
:10309000511E01F039F84FF41651164800F052FF56
:1030A0000024002D06D9315D124801F069F9641C35
:1030B000A542F8D82C460FE00F4901EB800050F8EC
:1030C0000C0C58B10168CB6831469847040003D511
:1030D000FDF7D0F961420160281B70BDFDF7CAF908
:1030E000092101604FF0FF3070BD000004010010A5
:1030F00003C009200C010010600200102DE9F0410E
:1031000004464FF01A4000EB4400B0F1C85F20467F
:1031100055D84FF0FC41B1EB440F1CD224F00040D5
:103120004FF07E5102F03BFB4FF0FF3102F075FC97
:10313000054601F0DFF914F0004F1DBF2C4F2D4E56
:1031400080F00040002708BF3E464FF0404102F0AB
:1031500029FA044605E0284F284E014602F022FADB
:1031600005462749284602F01DFA264902F094F840
:10317000294602F017FA244902F08EF8294602F097
:1031800011FA224902F088F8294602F00BFA204988
:1031900002F082F880462946204602F003FA4146B2
:1031A00002F000FA05463146204602F0F8FA2946B8
:1031B00002F088FB3946BDE8F04102F06DB84FF0EF
:1031C000CC41B1EB440F84BF1248BDE8F0814FF011
:1031D0007F41B1EB440F03D2BDE8F041FFF778BD6A
:1031E0000120FDF7DEFCBDE8F041FFF774BD0000F3
:1031F0000000494022AA7D3A0000C93F22AAFD39B9
:1032000024FE1C3DC78AD83C1E67383D1B93993D60
:10321000AFAA2A3EDB0FC93F70B5EFF31080012142
:1032200021EA000080F0010572B60D4C60680028AC
:1032300008BF25706068B0F1FF3F04D1432209A1A7
:1032400018A000F05BFC606828B125B9472205A1F1
:103250001EA000F053FC6068401C606070BD000060
:103260002C010010433A5C6D6A5C776F726B73706F
:103270006163655C626D5F777261705C31363635B3
:103280005C6D6265642D6F735C706C6174666F72E7
:103290006D5C6D6265645F637269746963616C2EF5
:1032A00063000000696E746572727570745F656E9C
:1032B00061626C655F636F756E746572203C20554A
:1032C000494E5433325F4D4158000000696E7465B9
:1032D0007272757074735F64697361626C656400A7
:1032E00010B50E4C6068002808BF10BDEFF31080C9
:1032F000012121EA000090F0010F04D1582208A119
:1033000017A000F0FBFB6068401E6060606800284A
:1033100006BF2078002810BD62B610BD2C01001039
:10332000433A5C6D6A5C776F726B73706163655C66
:10333000626D5F777261705C313636355C6D6265E7
:10334000642D6F735C706C6174666F726D5C6D621E
:1033500065645F637269746963616C2E6300000069
:10336000696E74657272757074735F64697361629B
:103370006C6564000FB4084810B5017800291CBFC3
:1033800010BC5DF814FB0121017003A9029800F044
:1033900069FC012000F002F82801001004460848EA
:1033A000FDF72DFA0748FDF72AFA00F085FC002802
:1033B00018BF00F0C1FD002C18BF00F0C9FBFEE7EC
:1033C000F0030010440400108A68002A01DCFEF7B4
:1033D0003FBD521E8A604A68C0B2531C4B601070D9
:1033E0007047000000487047805C000070B50446DC
:1033F00000680D46B0F1FF3F04D12C2209490AA014
:1034000000F07CFB45B1012D18BF70BDA0680168BC
:1034100062681143016070BDA068016862689143F1
:10342000F8E70000FC5D00006F626A2D3E70696E77
:1034300020213D202850696E4E616D65294E430064
:1034400070B50C4605460160B1F1FF3F08BF70BD85
:103450000021204600F034FC04F01F00012101FA95
:1034600000F0686024F01F0000F11801E960091DF8
:10347000296108396961A86070BD70B503260546E9
:103480000C46FFF7DDFFB4F1FF3F08BF70BD002120
:103490002846FFF7ABFF31462846BDE8704000F0F4
:1034A00059B8000070B50D4604460226FFF7C8FF64
:1034B000B5F1FF3F08BF70BD2068B0F1FF3F04D1F8
:1034C00024220849084800F019FB21696068086057
:1034D00001212046FFF78AFF31462046BDE87040B3
:1034E00000F038B8A45E00003C3500002DE9F04142
:1034F00004460E4602271546FFF7A2FFB6F1FF3F2E
:1035000008BFBDE8F0812068B0F1FF3F04D124225C
:1035100009490AA000F0F2FA6068002D14BFE168C2
:103520002169086001212046FFF760FF39462046E7
:10353000BDE8F04100F00EB8A45E00006F626A2D95
:103540003E70696E20213D202850696E4E616D6588
:10355000294E4300006800F0E1BB0000054A1268F4
:1035600092084900B2FBF1F1026851610068016103
:1035700070470000140100102DE9F0410E4604468A
:1035800015462849304600F041FC074626492846A2
:1035900000F03CFC0146384600F01AFC2060B0F117
:1035A000FF3F04D16322214921A000F0A7FA20683F
:1035B000A0F180412348B1F5E03110D0B1F5802F62
:1035C00004BFD0F8C41041F400210FD0B1F5042F8E
:1035D00004BFD0F8C41041F0806107D008E0D0F8F3
:1035E000C41041F08001C0F8C41001E0C0F8C4105C
:1035F0001548164900688008B0FBF1F02168486161
:103600002168086121683C208861216840200860A9
:103610000449304600F028FC2846BDE8F041024944
:1036200000F022BC985A0000D45A0000505E0000FE
:1036300028696E74296F626A2D3E69326320213DCC
:10364000204E430000C00F4014010010400D030045
:103650002DE9F05F1F460368DDF828B0D3F800C0FD
:103660004FF034041CF0080F4FF020069C610468F2
:103670004FF0240323604FF008031CBFD0F800C0B4
:10368000CCF81830D0F800C0DCF80040DFF8348106
:1036900014F0080F04BF0124454608D102E0641C61
:1036A000AC4204DCDCF8009019F0080FF7D0DCF82D
:1036B0000440CCF81860102C18BF082C05D000F07E
:1036C00083F86FF00100BDE8F09FD0F800C041F032
:1036D0000101CCF8081001688B61D0F800C0DCF85B
:1036E000001011F0080F08BF01210AD104E000BF4B
:1036F00001F10101414504DCDCF8004014F0080F41
:10370000F6D0DCF80410402905D000F05DF84FF049
:10371000FF30BDE8F09F0025A7F1010A4FF0040932
:10372000BAF1000F26DD0168C1F8009001688B61D5
:103730000168D1F800C01CF0080F04BF0124C44682
:1037400007D102E0641C644503DC0E6816F0080F24
:10375000F8D0D1F808C049680CF0FF0C502904D00B
:1037600000F032F82846BDE8F09F02F805C06D1C55
:103770005545D8DB0168C1F8189001688B61016874
:103780000B6813F0080F08BF012308D102E05B1C8F
:10379000434504DCD1F800C01CF0080FF7D08B685B
:1037A0004968DBB2582904D000F00EF8781EBDE855
:1037B000F09F5355BBF1000F18BF00F005F83846D5
:1037C000BDE8F09FA0860100026810211160026828
:1037D000082191610268106810F0100F1CBF0120D1
:1037E000064909D004E0401C884201DD01207047F1
:1037F000136813F0100FF6D100207047A086010067
:103800002DE9F047D0F800C01E46DDF82080DCF836
:1038100000304FF0340413F0080F4FF02005CCF8BF
:10382000184004684FF0240CC4F800C04FF008079B
:103830001CBF03689F61D0F800C0DCF8003013F0B3
:10384000080F384B04BF0124994608D102E0641CDC
:103850004C4504DCDCF800A01AF0080FF7D0DCF8C7
:103860000440CCF81850102C18BF082C05D0FFF7D6
:10387000ABFF6FF00100BDE8F087D0F800C001F0A9
:10388000FE01CCF8081001688F61D0F800C0DCF8A8
:10389000001011F0080F08BF01210AD104E000BF99
:1038A00001F10101994204DCDCF8004014F0080F3A
:1038B000F6D0DCF80410182905D0FFF785FF4FF08B
:1038C000FF30BDE8F0870024002E22DDD0F800C0D4
:1038D000115DCCF8081001688F610568296811F046
:1038E000080F04BF01219C4608D102E0491C614534
:1038F00004DCD5F8009019F0080FF7D06968282982
:1039000004D0FFF761FF2046BDE8F087641CB44295
:10391000DCDBB8F1000F18BFFFF756FF3046BDE8FB
:10392000F0870000A08601000EB5FEF7B9FF5548EC
:103930000068006820F02000524909680860524879
:103940000068006840F430504F490968086040F250
:103950001A6B83204D49096808600BF0FF004C4941
:10396000096808604FEA1B204A490968086047480F
:103970000068006820F0800044490968086007205A
:103980004549096808604548006800684449096875
:10399000884342490968086040480068006840F070
:1039A00080403E49096808604FF0000A3DA0006869
:1039B00001900020022301AA3A2100903A48FFF723
:1039C00085F876203949096808607A2037490968FE
:1039D0000860FF2035490968086051E00520FEF7BE
:1039E000AFFF00900098FEF7E1FF04463048006802
:1039F000006800F0200018B12EA0FCF7AFFDA24631
:103A000021462EA0FCF7AAFD31A0FCF7A7FD5146E8
:103A100030A0FCF7A3FD2EA0FCF7A0FDBAF1000F2B
:103A200004D0A4EB0A04002C00DA64424FF0000931
:103A30001FE00A2094FBF0F100FB114002A901F8FD
:103A40000900204601F08BF907460022254B00F0C3
:103A5000FFFF054601F054F9044602A810F80910CA
:103A600021A0FCF77BFD012010490968086009F1DD
:103A70000109B9F1040FDCDB1F4800F099FE00BF1B
:103A8000ACE70000CC000010C8000010E4000010FB
:103A9000D8000010DC000010E0000010F000001062
:103AA000E80000102A01000050010010D4000010AE
:103AB000D000001073616C7574210000416E676C5A
:103AC00065206265666F7265203A202564000000FB
:103AD0000A0000007265736574416E676C65203A78
:103AE0002025640000002440456E766F69206465DF
:103AF0002025630A00000000CDCCCC3D70B51446F3
:103B00000D460646FFF788FB23462A46314603A0AA
:103B100000F07CF8BDE8704000F01AB86D62656492
:103B2000206173736572746174696F6E2066616978
:103B30006C65643A2025732C2066696C653A2025F3
:103B4000732C206C696E65202564200A000000003B
:103B500086B0FFF761FB25496846FFF7A3FC002408
:103B60000098B0F1FF3F04D12422214921A0FFF7A2
:103B7000C5FF039901980860962000F02FFE009879
:103B8000B0F1FF3F04D1242219491AA0FFF7B6FF74
:103B9000049901980860962000F020FE641C042C13
:103BA000DEDB00240098B0F1FF3F04D1242210494D
:103BB00010A0FFF7A3FF0399019808604FF4C870A5
:103BC00000F00CFE0098B0F1FF3F04D12422084918
:103BD00008A0FFF793FF0499019808604FF4C8709C
:103BE00000F0FCFD641C042CDCDBB8E732C00920CB
:103BF000A45E00006F626A2D3E70696E20213D2038
:103C00002850696E4E616D65294E43000FB470B542
:103C1000A0B025AC249DFFF7FFFA23462A46802159
:103C20006846FCF781FC051E10DD0B48006820B9D2
:103C30000A4A0B48511E00F067FA00246E460848F5
:103C4000315D00F09DFB641CAC42F8DBFFF748FBE4
:103C500020B070BC5DF814FB0401001003C0092003
:103C60000C01001070B5A0B00C460546FFF7D4FA61
:103C700023462A4680216846FCF756FC051E10DDC7
:103C80000A48006820B90A4A0A48511E00F03CFA66
:103C900000246E460748315D00F072FB641CAC42A4
:103CA000F8DBFFF71DFB20B070BD00000401001021
:103CB00003C009200C01001000F036B970477047AE
:103CC00070B50D460446B0F1FF3F04D115220D49F1
:103CD0000DA0FFF713FFA4F10050A0F51C2001096F
:103CE0000007C20E880000F1804000F53030016806
:103CF0000323934099430160016805FA02F21143DE
:103D0000016070BD0C5F000070696E20213D2028AD
:103D100050696E4E616D65294E43000070B50C46CA
:103D20000546B0F1FF3F04D120221A491AA0FFF73F
:103D3000E5FEA5F10050A0F51C204209920002F119
:103D4000804202F5303200F01F03D2F868C0C4F39D
:103D5000800101FA03F32CEA030CC2F868C0D2F820
:103D600068C04CEA03039366002918BF70BD0209BE
:103D70000007C10E900000F1804000F53030026C69
:103D800003238B409A430264026C04FA01F111434D
:103D9000016470BD0C5F000070696E20213D202819
:103DA00050696E4E616D65294E4300000A68B2F19C
:103DB000FF3F09D00A68824201D14868704751F834
:103DC0000C2FB2F1FF3FF5D14FF0FF3070470000EC
:103DD000884208BF7047B0F1FF3F04BF08467047F4
:103DE00010B5B1F1FF3F08BF10BD03A0FFF7C2FA45
:103DF0004FF0FF3010BD000070696E6D6170206D76
:103E000069732D6D617463680000000010B5B0F136
:103E1000FF3F08BF10BD0A68B2F1FF3F0CD00A682F
:103E2000824204D14C68B4F1FF3F0AD106E051F858
:103E30000C2FB2F1FF3FF2D14FF0FF3402A0FFF799
:103E400099FA204610BD000070696E6D6170206E99
:103E50006F7420666F756E6420666F722070657275
:103E60006970686572616C0010B50446B0F1FF3F7F
:103E700008BF10BD0868B0F1FF3F11D00868A0422C
:103E800009D189682046FFF71BFF2046BDE8104096
:103E90000221FFF743BF51F80C0FB0F1FF3FEDD106
:103EA000BDE8104001A0FFF765BA0000636F756CB4
:103EB00064206E6F742070696E6F7574000000006E
:103EC00070B5054600F0D6FB6C684FF0E0406268C4
:103ED00082B1D4E9023CD2E900125E1A7CEB020600
:103EE0001CD2C91A62EB0C02B1F1E04372F100027C
:103EF00038BF0846D4E902120C18286842F10006BF
:103F0000016920468847284600F0B4FB6868D0E97C
:103F10000212081B72EB060038BF70BD28684069AA
:103F2000BDE87040004700000248006800F0010052
:103F300070470000F0ED00E084B069461820ABBE89
:103F400004B070472DE9F05F0D46064600686349EE
:103F5000884204DD9B22624962A0FFF7CFFD3068F2
:103F6000A0F180416648B1F5404109D0B1F5804FDC
:103F700011D0B1F50C2F1BD0B1F5102F23D02EE0AE
:103F8000D0F8A81121F0C001C0F8A811D0F8A811EC
:103F900041F0400109E0D0F8A81121F44071C0F8C7
:103FA000A811D0F8A81141F48071C0F8A81116E04A
:103FB000D0F8AC1121F44031C0F8AC11D0F8AC11FC
:103FC00041F4803109E0D0F8AC1121F44021C0F86F
:103FD000AC11D0F8AC1141F48021C0F8AC114948C3
:103FE0002A014FF0000900684FF00108B0FBF2F120
:103FF000B0FBF2F302FB13028FB24946002A57D0FE
:1040000001222C464FF0000C924603E04FF0000CCA
:10401000002A47D902FB00FB4FF0004313EA4B0F85
:104020000AD053000CEB020B43430BFB05FBB3FB25
:10403000FBF30AEB131309E093000CEB020B434371
:104040000BFB05FBB3FBFBF30AEB5313C3F34F036B
:10405000002B08BF0123BCF1000F18BF022B38BF93
:10406000022300FB02FB0CEB020E0EFB03FE4FEAE9
:10407000CE0EBBFBFEFB0BF1010BD5EB5B0B48BF80
:10408000CBF1000BA34507DA5C461F469046E1469C
:10409000AB4508BF012105D00CF1010303F0FF0C73
:1040A0009445B7D3521CD2B2102A01D20029ADD008
:1040B0003068017B41F0800101733168380A087172
:1040C00030680770316849EA081081F828003068C4
:1040D000017B21F080010173BDE8F09F00C0094021
:1040E0005C5F000028696E74296F626A2D3E7561FD
:1040F0007274203C3D20554152545F330000000053
:1041000000C00F40140100102DE9F0478846044616
:10411000174653494046FFF779FE05465149384650
:10412000FFF774FE01462846FFF752FE0546B0F140
:10413000FF3F04D15C224C494CA0FFF7DFFCA5F106
:1041400080414E482560B1F5404104BFD0F8C4100D
:1041500041F0080117D0B1F5804F04BFD0F8C4106A
:1041600041F010010FD0B1F50C2F04BFD0F8C410EE
:1041700041F0807107D0B1F5102F04BFD0F8C41002
:1041800041F0007101D1C0F8C41020680126067208
:1041900020684FF00009C0F804904FF416512046F3
:1041A000FFF7D0FE002003230146024643EA8000C9
:1041B00040EAC100216840EA0210087328494046DD
:1041C000FFF752FE27493846FFF74EFEB8F1FF3F92
:1041D00003D000214046FFF7A1FDB7F1FF3F03D018
:1041E00000213846FFF79AFDA5F18040B0F5404028
:1041F00008BFC4F804900FD0B0F5804F08BF6660C8
:104200000AD0B0F50C2F08BF022004D0B0F5102F53
:1042100008BF032000D1606061684FF0FF30C1EB40
:10422000C1021749034601EBC20250606268C2EB4B
:10423000C20201EBC2010246C8610021204600F023
:10424000D3F8A5F18040B0F5404018BFBDE8F08735
:104250000C480660D4E90012C0E90212BDE8F087FC
:10426000485B0000B45B00005C5F000028696E746E
:10427000297561727420213D204E430000C00F401B
:10428000A00200100401001070B404680023A4F11F
:1042900080459C46B5F5404504BF0523DFF8C8C0FE
:1042A00013D0B5F5804F04BF0623DFF8C0C00CD093
:1042B000B5F50C2F04BF0723DFF8B4C005D0B5F562
:1042C000102F04BF0823DFF8ACC0012505FA01F662
:1042D000B2B160683043606027480068002B00EB93
:1042E0008300C0F840C0BCBF70BC704705FA03F043
:1042F0005909890001F1E021C1F8000170BC704743
:10430000012912D04268C2EBC20C1C4A02EBCC025B
:1043100092F836C092F835201CEB020F1CBF70BC1F
:104320007047002908BF012100D000216268B24314
:1043300062600068406805FA01F108421CBF70BC69
:104340007047002BBCBF70BC704705FA03F05909D9
:10435000890001F1E021C1F88001BFF34F8FBFF365
:104360006F8F70BC70470000BD450000D145000054
:10437000E5450000F945000008ED00E0A00200104E
:1043800070B44268174CC2EBC20204EBC2020025B3
:10439000D2F81CC0BCF1FF3F0AD0166B3668136A16
:1043A0001E42F7D103681B7D13F0400FF2D00BE0E3
:1043B00003681B7D13F0200F02D082F8345003E015
:1043C00092F83430102BE5D2026811704068C0EBCF
:1043D000C00004EBC00090F83410491C80F8341081
:1043E00070BC7047A00200102DE9F84F04460E463D
:1043F000D4E90010DFF8ECB099469246594518BF51
:10440000002506D19BF810105D4621F0C0018BF805
:104410001010DFF8D480C0EBC00008EBC0074FF0ED
:10442000FF31F961796061680022C1EBC10108EBDD
:10443000C101204681F835201146FFF725FF002EE7
:1044400008BFBDE8F88F29495046FFF7AFFC009040
:1044500027494846FFF7AAFC022E18BF032E13D1A6
:10446000B9F1FF3F10D0584509D145B1287C40F043
:10447000800028741E494846FFF7F6FC04E007F167
:104480001C004946FEF7F9FF012E1CBF032EBDE8B4
:10449000F88FBAF1FF3F08BFBDE8F88F0720216809
:1044A0000872009858450AD14DB1287C40F0400070
:1044B00028745046BDE8F84F0C49FFF7D5BC381DAD
:1044C00000225146FFF712F861680122C1EBC101D9
:1044D00008EBC101204681F83520BDE8F84F0021E6
:1044E000FFF7D2BE00000140A0020010205C0000D7
:1044F000445C000070B5054601F05CF9044620F00C
:104500000040C0F1FF40C00F08D025F00040C0F1CE
:10451000FF40C00F04BF0120FCF743FB204670BDE5
:1045200070B505460068C06880476868416801B397
:10453000D0E90264286840688047B0422CBF00215F
:10454000012111B1001C44F101046968C1E90204B0
:1045500069684A68D2E9003CC01A74EB0C0008D3C1
:10456000D06848606868016800291CBF9068884767
:10457000DBE72846BDE87040FFF7A2BC10B5044653
:104580004068007C98B92068006880476168002016
:1045900008606168486062680121C2E902006068E1
:1045A0000174204600F066F82046FFF789FC20469B
:1045B00000F060F86068806810BD0000034A9068F1
:1045C0000021C0F3420000F021B8000000C000400C
:1045D000034A90680121C0F3420000F017B80000C0
:1045E00000000140034A90680221C0F3420000F03D
:1045F0000DB8000000800940034A90680321C0F311
:10460000420000F003B8000000C0094030B4DFF8F9
:104610005CC0C1EBC1040CEBC403012808BF01213D
:1046200012D002281CBF30BC704700215868B0F17E
:10463000FF3F09D018699D68056093F8360018B9E6
:10464000506820F0010050605CF83400002804BF7E
:1046500030BC7047002901BF93F83620002A30BCD7
:104660007047034A526830BC10470000A002001097
:104670000401001070B505464068D0E9026428685E
:1046800040688047B04234BF0121002111B1001CB5
:1046900044F101046968C1E9020470BD01490120C7
:1046A00008607047004009400248416921F001015B
:1046B00041617047004009404FF0E0211020C1F8EF
:1046C0000002704712480168002918BF7047012195
:1046D0000160104850F8C42F42F4000202600E48F6
:1046E000002202670D4A12689208022343600C4BB5
:1046F000B2FBF3F2521EC26041600B4809490068E8
:1047000001654FF0E0211020C1F800017047000062
:104710001801001000C00F400040094014010010B3
:1047200040420F002D47000008ED00E00148FFF770
:10473000F7BE0000805C0000114912480A68EAB91F
:1047400001220A60104951F8C43F43F400030B6092
:10475000002101670D4909688908022343600C4B59
:10476000B1FBF3F1491EC16042600B49094A096877
:104770000A654FF0E0221021C2F8001180687047EE
:10478000180100100040094000C00F401401001043
:1047900040420F002D47000008ED00E0034988610A
:1047A000486940F00100486170470000004009403E
:1047B00070B5094900F0F6FE00F0A4FE0446FEF7CD
:1047C00011FE0646FFF7DAFE05463046FFF7D6FE35
:1047D000401BA042F9D370BD0024744970B54FF45A
:1047E0007A7100FB01F5FEF7FDFD0646FFF7C6FEF8
:1047F00004463046FFF7C2FE001BA842F9D370BD45
:1048000010B500290AD00878002807D00548784458
:10481000FCF71EF9002801D0002010BD02487844A2
:1048200010BD0000C2170000BA17000010B5002923
:104830000AD00878002807D005487844FCF708F922
:10484000002801D0002010BD0248784410BD0000AF
:10485000B2170000AA17000010B50446006800282F
:1048600006BF201D20602068211D884204D05D22E3
:1048700002490348FFF742F9206810BDB45D00000B
:10488000A05D000021F00042A2F16052B2F5801F4D
:1048900001F0004328BFD2F17F6C0BD95FEA001C06
:1048A00043EAC20242EB507018BF704728BF20F0A5
:1048B00001007047B2F5801FBCBF184670474FEA31
:1048C000410C1CF5001F02D2084600F032BF70B543
:1048D00000F042FB00000089FFF7F6BF4FF00040F8
:1048E000A0F580007047000010B591EA030F48BFA3
:1048F00083F0004300F1C283841A71EB030C05D2EC
:10490000121943EB0C03001B61EB0C01DFF824E1EF
:104910004FEA1154A4EB135C1EEA430F18BF9EEA42
:10492000445F73D023EA0E03DCF1200E21EA045128
:1049300043F4801332D322FA0CFE10EB0E0023FA5C
:104940000CFE41EB0E01CCF1200E03FA0EFE10EB33
:104950000E0051F10001B1F5801FCCF1200E32D2D2
:1049600001EB045112FA0EF2BDE8104058BF704737
:10497000401C38BF5FEA420218BF7047002814BFCE
:1049800020F0010041F100014FEA410313F5001F3F
:1049900038BF7047A1F1C04100F02CBB012A43EBA6
:1049A0000302ACF1200CDCF11F0E32BF4FF0000E01
:1049B00023FA0CF310EB030041EB0451B4EB115F4D
:1049C000D0D0A1EB045101F5801149085FEA300015
:1049D00001EB04510ED350F1000038BF12FA0EFE65
:1049E00008D1BDE81040C9E7401C38BF5FEA420269
:1049F000CAD1C3E7BDE810404FEA410313F5001FD9
:104A000038BF7047A1F1C04100F0F4BA9EEA445F9C
:104A100008D011EA5E0FBDE8104004BF01F000416C
:104A200000207047BDE8104070B500F095FA00BF57
:104A300064FBBE3E0000E0FF491058BFC1F1404199
:104A40005B1058BFC3F140438B42EFF300807047C7
:104A50002DE9C04130B4DFF8A0C23CEA111418BF00
:104A60003CEA131400F0EC8081EA03051CEA1114FF
:104A700044EAD57418BF1CEA131500F0C780A4EBF4
:104A800005044FF0004545EAC12145EAC32341EA48
:104A9000505143EA525304F17F74994204F50034B3
:104AA0004FEAC0204FEAC22208BF904200F09C802B
:104AB0004FEA13650FF24016765D4FEA134506FB89
:104AC00005F7C7F1807706FB07F74FEAD737A7FB53
:104AD00003687642C8F58038A7FB06CE38BFA8F138
:104AE000010807FB08E64FF0000EA6FB028CE6FB70
:104AF00003CEDCF1000CCEF1004E38BFAEF1010E5A
:104B0000A6FB0C584FF000074FF00005E6FB0E87A0
:104B1000A1FB08C6A0FB07CE16EB0E0645F100056B
:104B2000E1FB076515F1E04E7EBFA4F580345FEA36
:104B300046066D4116F1800745F100054FEA17273B
:104B40004FEA066647EA0567A6F1DE46B6F1805FE2
:104B50004FEA15251FD9384624F0010C05EBC47126
:104B6000BCF1FE6F01EB0C1102D8F0BCBDE8008176
:104B700024425CBF01F5801E9EEAC47F02D4F0BCD3
:104B8000BDE80081244238D4F0BCA1F1C041BDE8A9
:104B9000004100F02FBA4FEAD22242EA43524FEAD4
:104BA000D323A7FB02864FEAD02040EA415007FBFF
:104BB00003661EEA0E0F4FEAD12105FB026658BFBD
:104BC000A6EB0056B6EB00564FEA520E4EEAC37EF5
:104BD00018EB0E0E56EB530EBDD518EB02085E41D6
:104BE0007F1C55F10005B6E74FF480154FF0000724
:104BF0004FF000064FF00008ADE7F0BC4FF00000AA
:104C000001F1C04101F00041BDE8008111EA0C1F33
:104C10000CEA131500D00CE013EA0C1F00F02580FD
:104C20004FF00000F0BC81EA030101F00041BDE853
:104C30000081F0BCBDE8004181EA030100F0DAB96F
:104C4000F0BCBDE8004170B500F086F9097EFC3E7D
:104C500000F007B881EA03014FF0000001F00041C5
:104C6000704781EA030100F0C5B9F0BCBDE800411E
:104C70004FF0000021497047FFFDFBF9F7F5F4F212
:104C8000F0EEEDEBE9E8E6E4E3E1E0DEDDDBDAD8E7
:104C9000D7D5D4D3D1D0CFCDCCCBCAC8C7C6C5C445
:104CA000C2C1C0BFBEBDBCBBBAB9B8B7B6B5B4B35C
:104CB000B2B1B0AFAEADACABAAA9A8A8A7A6A5A447
:104CC000A3A3A2A1A09F9F9E9D9C9C9B9A9999980B
:104CD0009797969595949393929191908F8F8E8EAE
:104CE0008D8C8C8B8B8A898988888787868585843B
:104CF00084838382828181800000FF070000F87F27
:104D00004FEA41034FEA5353A3F58063D3F11E03E7
:104D1000C8BFD3F1210C0CDD4FF0004242EAC122A2
:104D200042EA505232FA03FC8CEAE17CACEBE170CF
:104D30007047102BC4BF0020704703F5787CBCF18E
:104D4000FF3F04D06FF0004282EA2100704770B547
:104D500000F002F94992248000207047F2E710F039
:104D6000004248BF4042B0FA80F310FA03F10AD083
:104D7000C3F11D0303F580634FEA415002EB035278
:104D800002EBD12170474FF00000704751EA030C4D
:104D900017D41CF5801F58BFBCF5801F00F106809A
:104DA000994218BF704708BF9042704707D711F566
:104DB000801F58BF13F5801F19D49942704789424C
:104DC00070471CF5801F08D5BCF5801FF7D58B42B6
:104DD00018BF704708BF824270474FF4001C1CEB9D
:104DE000410F38BF1CEB430F01D28B42704770B5A7
:104DF00000F0B2F8922449004FF000514FF0805378
:104E0000FFF71ABEDFF848C170B51CEA111E1EBFBD
:104E10001CEA13159EEA0C0F95EA0C0F00F06F8048
:104E200081EA030423EA4C134EEAD47E21EA4C11B2
:104E300041F4801143F48013AE44A1FB024CA0FB6B
:104E40000365AEF17F7E361955EB0C05A1FB034CD3
:104E50004CF10003A0FB021C16EB0C06654153F15C
:104E60000003094218BF46F0010613F4007F0BD17E
:104E70004FEA03314FEA0530340341EA155140EA65
:104E800016506FF003020AE04FEAC3214FEAC52033
:104E9000F40241EA555140EA56506FF0020202EB2B
:104EA0002E4201EB025585EACE710AD05FEA440C2E
:104EB00018BF24F0004450F1000041F1000120EA45
:104EC000D47040F2FE7C624500D270BDA84214BF8F
:104ED0004FF080444FF04044002E08BF0024BEF144
:104EE000806FA8BFA1F1C041BDE8704080F2828010
:104EF0004FF0000001F1C04101F0004170479EEA0F
:104F00000C0F0CEA131518BF95EA0C0F06D04FF0E2
:104F1000000081EA030E0EF0004170BD00F01CF8A5
:104F20008900013E00F007B800F009B84FEA430CD1
:104F30005FEA5C5C08D081EA030100F05BB84FEAED
:104F4000410C5FEA5C5CF6D14FF00000014970470C
:104F50000000FF070000F87F0EF1020E2EF0030E96
:104F60005EF8046B364205D4012A43EB030515F5C0
:104F7000001F12D8012841EB010C1CF5001F0CD8B2
:104F80000ED14FEAD17C15F5001F0CEB4C0C0CF147
:104F9000020C08BF4CEBD37C04E04FF0080C01E09E
:104FA0004FEAD37C0CEB4C0526FA05F606F0070613
:104FB000B6F1040C06D20EEB860CBDE870404CF046
:104FC000010C6047DFE80CF0090B02024FF00041D2
:104FD0004FF00000A1F5002170BD194610460128D0
:104FE00051EB010418BFD4F5001484BF002001F078
:104FF000004170BD0808A0F500114FEA310170476B
:1050000053EA010C17D41CF5801F58BFBCF5801F54
:1050100000F106808B4218BF704708BF824270477C
:1050200007D713F5801F58BF11F5801F19D48B4285
:1050300070479B4270471CF5801F08D5BCF5801F48
:10504000F7D5994218BF704708BF904270474FF498
:10505000001C1CEB430F38BF1CEB410F01D29942DF
:1050600070470FB40CBC03BCFFF7C1BE10B591EA8A
:10507000030F48BF83F000433FF53EAC841A71EB49
:10508000030C07D212198CF0004C43EB0C03001BED
:1050900061EB0C01DFF8A4E14FEA1154A4EB135CBF
:1050A0001EEA430F18BF9EEA445F00F0B08023EA77
:1050B0006E03524221EA0451C3EB6E0338BF5B1EFC
:1050C000DCF1200E25D322FA0CFE10EB0E0043FA81
:1050D0000CFE41EB0E01CCF1200E03FA0EFE10EB9C
:1050E0000E0051F10001CCF1200E29D412FA0EF27B
:1050F00001EB0451BDE8104058BF7047401C1CBF75
:10510000B2F1004F704700280CBF491C20F001008D
:10511000704712EB020E43EB030218BF4FF0010E73
:105120004EEA4202ACF1200CDCF11E0E54D943FAD7
:105130000CFE10EB0E0051F1FF31CCF11E0ED5D557
:105140000EF1010E12FA0EFE404141EB010101EB9E
:10515000445C5FEA5C5C10D910EBDE7001EB04513B
:1051600038BFBEF1004FBDE8104018BF704700289F
:105170000CBF491C20F00100704730D24FEAD42CFC
:1051800011F5001124F400641BD0B1FA81F20B3A3E
:10519000A41AA41ED2F12003914030FA03F319435C
:1051A000904001EBCC71002C01EB0451BDE81040A4
:1051B000A8BF704701F1C0414FF0000001F000416D
:1051C0007047B0FA80F310FA03F100D110BDE41A71
:1051D000173C4805C90AE4E701EB045110BD49102A
:1051E00001EB0451BDE810404FEA300002E04FF0FF
:1051F000000170474A0008BF0042F8D0B2F5001F16
:1052000028BF704701F000414FF0000070479EEA50
:10521000445F07D011EA5E0FBDE8104004BF0021D3
:1052200000207047BDE8104070B5FFF795FE00BF45
:1052300040DFF63E83F00041104670470000E0FF7B
:1052400043004FEAD30C4FEA3C0C43401FBF4007DA
:105250000CF1605113F0FE4F70471CF0006F03D14A
:1052600000200CF0004170470CF0004343EA5070FE
:1052700010B540EACC0000F016FA00BF0000009222
:105280004FEA0001FFF7B6BE4FF000414FF00000BB
:10529000A1F500217047000090EA010F48BF81F09E
:1052A000004100F11683421A3CBF801A89184FEA68
:1052B000D0524FF07F4C1CEA410FA2EBD15318BFE4
:1052C0009CEA026F00F03B804FF0004C4CEA00205B
:1052D0004CEA012121FA03FC10EB0C0C1ED202F166
:1052E000FF325FEA1C2040EBC25038BF70471CF011
:1052F0007F0F4FEA400C18BFBCF17F4F38BF70479B
:10530000C3F12003994008BF20F00100BCF17F4F9A
:1053100038BF7047A0F1C04000F00BBA4FEA3C0024
:10532000000A40EBC25028BF1CF0FF0F4FEA400CB0
:10533000E6D018BFBCF17F4F38BF7047EAE79CEA60
:10534000026F05D010EA5C0F08BF00F00040704704
:1053500010B500F0A8F900BF64FBBE3E014800F0A4
:105360002ABB00BF0000C07F401058BFC0F14040C2
:10537000491058BFC1F140418142EFF300807047AE
:105380004FF47F0C1CEAD0121EBF1CEAD11392EA24
:105390000C0F93EA0C0F00F0858090EA010F48BFD4
:1053A00042F4807240F4000C41F400002CF07F4184
:1053B00020F07F4000B58142A2EB03020FF2081CEF
:1053C000ACEB504EC0F100009EF800E04FEA4E0EEC
:1053D00000FB0EFC38BF49004FEA2C1C02F5FA0214
:1053E0000CFB0EF34FEACE1E4FEA112C4FEAC121FF
:1053F0000EEB635E42EB22420EFB0CFC4FEA1C53A9
:1054000000FB03114FEA112C4FEA01310EFB0CFC9B
:105410004FEADC4C00FB0C11C14228BF09184CEBD1
:1054200003335DF804EB10EB410143EBC250B2F5DE
:105430007C0F38BF704729D512F0F00F1CBF00F168
:10544000C04000F0004070470081828384858687D9
:1054500088898B8C8D8E8F919293959697999A9C33
:105460009D9FA0A2A3A5A7A8AAACAEB0B2B3B5B7A2
:10547000B9BCBEC0C2C5C7C9CCCED1D4D7D9DCDF78
:10548000E2E6E9ECF0F3F7FAFE0000004FEA400C28
:105490000CF1807CBCF17E4F28BF7047B0F1C0405A
:1054A00000F047B990EA010F0CEAD11348BF42F46B
:1054B0008072624538BF634507D213F47F0F16D060
:1054C00080EA010000F00040704710B500F0EBF8F2
:1054D000097EFC3E00F005B880EA010000F00040C3
:1054E000704780EA010000F0004000F022B912F499
:1054F0007F0F04BF0248704780EA010000F019B92D
:105500000000C07F41000B0ED3F19E0208D950F479
:1055100000034FEA032323FA02F048BF40427047DA
:1055200010B500F0C0F800BF4992248000207047F9
:105530006FF0004282EA20007047000050EA010C40
:1055400000F113801CF5000F58BFBCF5000F01D40B
:105550008842704707D710F5000F58BF11F5000FAC
:1055600015D488427047894270471CF5000F04D556
:10557000BCF5000FF7D5814270474FF0807C1CEBE3
:10558000400F38BF1CEB410F01D28142704710B56C
:1055900000F089F8922449004FF000504FF08051FC
:1055A000FFF7E2BE4FF47F0C1CEAD0121EBF1CEACC
:1055B000D11392EA0C0F93EA0C0F00F0478090EAA7
:1055C000010F48BF42F480724FF0004C4CEA0020BB
:1055D0004CEA012102EB0302A0FB0113A2F5000239
:1055E000002918BF43F001035B0028BF4FEA3303D3
:1055F00042EB22425FEA132C4CEBC2502EBFBCEBB5
:10560000436FB2F57C0F70474FEA036CBCF1004F5B
:1056100008BF20F00100B2F57C0F38BF70470BD5F2
:1056200082F0FF0212F5803FC8BF704700F1C04012
:10563000D8BF00F00040704700F5000C5FEA4C0C4A
:1056400048BF7047B0F1C04000F073B890EA010F56
:105650000CEAD11348BF42F48072624538BF6345FB
:1056600004D280EA010000F00040704710B500F05D
:105670001AF800BF8900013E00F007B800F009B831
:105680005FEA410C5FEA1C6C08D080EA010000F080
:1056900050B85FEA400C5FEA1C6CF6D14FF0004056
:1056A000A0F5800070470EF1020E2EF0030E5EF89A
:1056B000044B244204D44FEA4102B2F17F4F11D887
:1056C0004FEA4003B3F17F4F0CD80ED14FEAD07CA4
:1056D000B2F17F4F0CEB4C0C0CF1020C08BF4CEB01
:1056E000D17C04E04FF0080C01E04FEAD17C0CEBD8
:1056F0004C0324FA03F404F00704B4F1040C06D2BA
:105700000EEB840CBDE810404CF0010C6047DFE864
:105710000CF0070802024FF00040A0F5800010BD19
:105720000846420018BFD2F1807288BF00F00040E6
:1057300010BDFF2141EAD050C005704751EA000C6E
:1057400000F113801CF5000F58BFBCF5000F01D409
:105750008142704707D711F5000F58BF10F5000FB1
:1057600015D481427047894270471CF5000F04D55B
:10577000BCF5000FF7D5884270474FF0807C1CEBDA
:10578000410F38BF1CEB400F01D28842704780EABE
:10579000010081EA000180EA0100FFF7F8BE80F015
:1057A000004090EA010F7FF57EAD81F0004100F0EE
:1057B00090B800004FEAD051002988BFD1F1FF0214
:1057C00040F2758001F17D014FEA002070B5490873
:1057D00040F0004038BF40080EA2430E040CD25CDB
:1057E00002FB02F304FB03F3C3F14043A3FB0254A7
:1057F000ED0D45EA442202FB02F3A0FB03546D4287
:10580000C4F1404438BF641EA2FB05350023E2FB0F
:105810000453EA0B42EA4342A0FB023212F1400475
:10582000A2F12103E40903F07F031F2B32D904EB1B
:10583000C15070BDFEFAF7F3F0ECE9E6E4E1DEDC1E
:10584000D9D7D4D2D0CECCCAC8C6C4C2C1BFBDBCC1
:10585000BAB9B7B6B4B3B2B0AFAEACABAAA9A8A749
:10586000A6A4A3A2A1A09F9E9E9D9C9B9A99989757
:10587000979695949393929190908F8E8E8D8C8C19
:105880008B8A8A89898887878686858484838382B0
:105890008281818004FB04F6B6EB004603D5E64224
:1058A00048BF641CC3E7A64258BF641CBFE711F0A1
:1058B000FF0F02D100F00040704710B5FFF7F3FE74
:1058C0007FDBFFBE90EA010F48BF81F000413FF54A
:1058D000EAAC421A04D882F00042A0EB0200114464
:1058E0004FEAD0524FF07F4C1CEA410FA2EBD1534C
:1058F00018BF9CEA026F4AD04FF0004C4CEA0020DF
:105900004CEA012121FA03FCB0EB0C0C0FD412F08D
:10591000FE0F36D05FEA4C001DD5001240EBC2509E
:1059200038BF70471CF03F0F18BF70470BE0A2F163
:1059300001025FEA1C2040EBC25038BF70471CF0E8
:105940007F0F18BF7047C3F12003994014BF401E5A
:1059500020F00100704780084FEA122308BF70470B
:10596000B0FA80FCA2EB0C02CCF1280C60FA0CF02F
:1059700093EA122F04BF00EBC25070474FEAC37086
:105980007047130A5FEADC1008BF7047F6E79CEA2D
:10599000026F04D010EA5C0F08BF0020704710B5FA
:1059A000FFF781FE40DFF63E81F000407047FBF7D5
:1059B0004EBEFBF783BF0CF00F03092B08BF082076
:1059C00000F051800A2B0BD0082B18BF704708BF7E
:1059D0001CF0400F0AD04FF000004FF0000170475C
:1059E0001CF0400F18BF4FF0004070471CF0100F24
:1059F00008D020F0704300F07F4242EAD3014FEA22
:105A00004370704700F0604021F07F4242EA00029C
:105A100001F07F4040EA727070474FF0FF0212EAD7
:105A2000D0521CBF92F0FF038B42C2BFD14200EBA9
:105A3000C1507047002A0AD0002B0BD0002900F07B
:105A40000040A4BF40F0FE4040F40000704700F06A
:105A50000040704743024FF00B0C18BF4CF0806CB5
:105A60007FF47CAC70471CF4801F11D01CF4E02F35
:105A700003D06FEACC31490070474FF04050EFF34C
:105A8000008222F0704242EA000282F300887047EE
:105A90004FF000007047000000C0092000C0054022
:105AA000030000000AC0092000000A4002000000B4
:105AB00013C0092000C00540030000001BC00920DE
:105AC00000C0014001000000FFFFFFFFFFFFFFFFDC
:105AD0000000000001C0092000C0054003000000D4
:105AE0000BC0092000000A400200000014C0092079
:105AF00000C00540030000001CC0092000C0014098
:105B000001000000FFFFFFFFFFFFFFFF000000009C
:105B10000C0000002000000024000000280000000D
:105B20003000000034000000380000003C0000009D
:105B30002F737464696E002F7374646F7574002F13
:105B4000737464657272000000C0092000C00940CF
:105B50000200000002C0092000C000400100000057
:105B60000AC0092000800940010000000FC0092080
:105B7000000001400100000019C0092000C00940D8
:105B80000300000040C009200000014002000000A6
:105B900048C0092000800940020000009CC0092084
:105BA00000C0094003000000FFFFFFFFFFFFFFFFF1
:105BB0000000000001C0092000C0094002000000F0
:105BC00003C0092000C00040010000000BC00920F4
:105BD000008009400100000010C0092000000140C1
:105BE000010000001AC0092000C0094003000000A5
:105BF00041C00920000001400200000049C0092006
:105C000000800940020000009DC0092000C009403A
:105C100003000000FFFFFFFFFFFFFFFF0000000089
:105C200016C00920000001400100000047C0092003
:105C30000000014002000000FFFFFFFFFFFFFFFF29
:105C40000000000011C00920000001400100000018
:105C500042C009200000014002000000FFFFFFFFDA
:105C6000FFFFFFFF00000000C546000039470000AD
:105C7000A94600009D4600009D470000B94600006F
:105C8000685C0000800300100400000800000000B1
:105C900000000002000100001000000000000000F1
:105CA0000000000030313233343536373839414264
:105CB000434445464030580030313233343536376E
